{
	"contracts/1_For.sol": {
		"fixedArray": {
			"abi": [
				{
					"inputs": [],
					"name": "getA",
					"outputs": [
						{
							"internalType": "uint256[]",
							"name": "",
							"type": "uint256[]"
						}
					],
					"stateMutability": "view",
					"type": "function"
				},
				{
					"inputs": [],
					"name": "getALength",
					"outputs": [
						{
							"internalType": "uint256",
							"name": "",
							"type": "uint256"
						}
					],
					"stateMutability": "view",
					"type": "function"
				},
				{
					"inputs": [],
					"name": "getB",
					"outputs": [
						{
							"internalType": "uint256[4]",
							"name": "",
							"type": "uint256[4]"
						}
					],
					"stateMutability": "view",
					"type": "function"
				},
				{
					"inputs": [],
					"name": "getBLength",
					"outputs": [
						{
							"internalType": "uint256",
							"name": "",
							"type": "uint256"
						}
					],
					"stateMutability": "view",
					"type": "function"
				},
				{
					"inputs": [],
					"name": "getCount",
					"outputs": [
						{
							"internalType": "uint256",
							"name": "",
							"type": "uint256"
						}
					],
					"stateMutability": "view",
					"type": "function"
				},
				{
					"inputs": [
						{
							"internalType": "uint256",
							"name": "_n",
							"type": "uint256"
						}
					],
					"name": "pushA",
					"outputs": [],
					"stateMutability": "nonpayable",
					"type": "function"
				},
				{
					"inputs": [
						{
							"internalType": "uint256",
							"name": "n",
							"type": "uint256"
						},
						{
							"internalType": "uint256",
							"name": "_n",
							"type": "uint256"
						}
					],
					"name": "pushB",
					"outputs": [],
					"stateMutability": "nonpayable",
					"type": "function"
				},
				{
					"inputs": [
						{
							"internalType": "uint256",
							"name": "_n",
							"type": "uint256"
						}
					],
					"name": "pushB2",
					"outputs": [],
					"stateMutability": "nonpayable",
					"type": "function"
				}
			],
			"devdoc": {
				"kind": "dev",
				"methods": {},
				"version": 1
			},
			"evm": {
				"assembly": "    /* \"contracts/1_For.sol\":1774:2511  contract fixedArray {... */\n  mstore(0x40, 0x80)\n  callvalue\n  dup1\n  iszero\n  tag_1\n  jumpi\n  0x00\n  dup1\n  revert\ntag_1:\n  pop\n  dataSize(sub_0)\n  dup1\n  dataOffset(sub_0)\n  0x00\n  codecopy\n  0x00\n  return\nstop\n\nsub_0: assembly {\n        /* \"contracts/1_For.sol\":1774:2511  contract fixedArray {... */\n      mstore(0x40, 0x80)\n      callvalue\n      dup1\n      iszero\n      tag_1\n      jumpi\n      0x00\n      dup1\n      revert\n    tag_1:\n      pop\n      jumpi(tag_2, lt(calldatasize, 0x04))\n      shr(0xe0, calldataload(0x00))\n      dup1\n      0xa87d942c\n      gt\n      tag_11\n      jumpi\n      dup1\n      0xa87d942c\n      eq\n      tag_7\n      jumpi\n      dup1\n      0xb97f7202\n      eq\n      tag_8\n      jumpi\n      dup1\n      0xc1f69ac3\n      eq\n      tag_9\n      jumpi\n      dup1\n      0xd46300fd\n      eq\n      tag_10\n      jumpi\n      jump(tag_2)\n    tag_11:\n      dup1\n      0x2a2cb21b\n      eq\n      tag_3\n      jumpi\n      dup1\n      0x40bb882d\n      eq\n      tag_4\n      jumpi\n      dup1\n      0x9441ebf4\n      eq\n      tag_5\n      jumpi\n      dup1\n      0xa1c51915\n      eq\n      tag_6\n      jumpi\n    tag_2:\n      0x00\n      dup1\n      revert\n        /* \"contracts/1_For.sol\":2079:2162  function getBLength() public view returns (uint) {... */\n    tag_3:\n      tag_12\n      tag_13\n      jump\t// in\n    tag_12:\n      mload(0x40)\n      tag_14\n      swap2\n      swap1\n      tag_15\n      jump\t// in\n    tag_14:\n      mload(0x40)\n      dup1\n      swap2\n      sub\n      swap1\n      return\n        /* \"contracts/1_For.sol\":1925:1985  function pushA(uint _n) public {... */\n    tag_4:\n      tag_16\n      0x04\n      dup1\n      calldatasize\n      sub\n      dup2\n      add\n      swap1\n      tag_17\n      swap2\n      swap1\n      tag_18\n      jump\t// in\n    tag_17:\n      tag_19\n      jump\t// in\n    tag_16:\n      stop\n        /* \"contracts/1_For.sol\":1834:1917  function getALength() public view returns (uint) {... */\n    tag_5:\n      tag_20\n      tag_21\n      jump\t// in\n    tag_20:\n      mload(0x40)\n      tag_22\n      swap2\n      swap1\n      tag_15\n      jump\t// in\n    tag_22:\n      mload(0x40)\n      dup1\n      swap2\n      sub\n      swap1\n      return\n        /* \"contracts/1_For.sol\":2342:2422  function getB() public view returns (uint[4] memory) {... */\n    tag_6:\n      tag_23\n      tag_24\n      jump\t// in\n    tag_23:\n      mload(0x40)\n      tag_25\n      swap2\n      swap1\n      tag_26\n      jump\t// in\n    tag_25:\n      mload(0x40)\n      dup1\n      swap2\n      sub\n      swap1\n      return\n        /* \"contracts/1_For.sol\":2430:2508  function getCount() public view returns (uint) {... */\n    tag_7:\n      tag_27\n      tag_28\n      jump\t// in\n    tag_27:\n      mload(0x40)\n      tag_29\n      swap2\n      swap1\n      tag_15\n      jump\t// in\n    tag_29:\n      mload(0x40)\n      dup1\n      swap2\n      sub\n      swap1\n      return\n        /* \"contracts/1_For.sol\":2268:2334  function pushB2(uint _n) public {... */\n    tag_8:\n      tag_30\n      0x04\n      dup1\n      calldatasize\n      sub\n      dup2\n      add\n      swap1\n      tag_31\n      swap2\n      swap1\n      tag_18\n      jump\t// in\n    tag_31:\n      tag_32\n      jump\t// in\n    tag_30:\n      stop\n        /* \"contracts/1_For.sol\":2170:2241  function pushB(uint n, uint _n) public {... */\n    tag_9:\n      tag_33\n      0x04\n      dup1\n      calldatasize\n      sub\n      dup2\n      add\n      swap1\n      tag_34\n      swap2\n      swap1\n      tag_35\n      jump\t// in\n    tag_34:\n      tag_36\n      jump\t// in\n    tag_33:\n      stop\n        /* \"contracts/1_For.sol\":1993:2071  function getA() public view returns(uint[] memory) {... */\n    tag_10:\n      tag_37\n      tag_38\n      jump\t// in\n    tag_37:\n      mload(0x40)\n      tag_39\n      swap2\n      swap1\n      tag_40\n      jump\t// in\n    tag_39:\n      mload(0x40)\n      dup1\n      swap2\n      sub\n      swap1\n      return\n        /* \"contracts/1_For.sol\":2079:2162  function getBLength() public view returns (uint) {... */\n    tag_13:\n        /* \"contracts/1_For.sol\":2122:2126  uint */\n      0x00\n        /* \"contracts/1_For.sol\":2146:2154  b.length */\n      0x04\n        /* \"contracts/1_For.sol\":2139:2154  return b.length */\n      swap1\n      pop\n        /* \"contracts/1_For.sol\":2079:2162  function getBLength() public view returns (uint) {... */\n      swap1\n      jump\t// out\n        /* \"contracts/1_For.sol\":1925:1985  function pushA(uint _n) public {... */\n    tag_19:\n        /* \"contracts/1_For.sol\":1967:1968  a */\n      0x00\n        /* \"contracts/1_For.sol\":1974:1976  _n */\n      dup2\n        /* \"contracts/1_For.sol\":1967:1977  a.push(_n) */\n      swap1\n      dup1\n      0x01\n      dup2\n      sload\n      add\n      dup1\n      dup3\n      sstore\n      dup1\n      swap2\n      pop\n      pop\n      0x01\n      swap1\n      sub\n      swap1\n      0x00\n      mstore\n      keccak256(0x00, 0x20)\n      add\n      0x00\n      swap1\n      swap2\n      swap1\n      swap2\n      swap1\n      swap2\n      pop\n      sstore\n        /* \"contracts/1_For.sol\":1925:1985  function pushA(uint _n) public {... */\n      pop\n      jump\t// out\n        /* \"contracts/1_For.sol\":1834:1917  function getALength() public view returns (uint) {... */\n    tag_21:\n        /* \"contracts/1_For.sol\":1877:1881  uint */\n      0x00\n        /* \"contracts/1_For.sol\":1901:1902  a */\n      dup1\n        /* \"contracts/1_For.sol\":1901:1909  a.length */\n      dup1\n      sload\n      swap1\n      pop\n        /* \"contracts/1_For.sol\":1894:1909  return a.length */\n      swap1\n      pop\n        /* \"contracts/1_For.sol\":1834:1917  function getALength() public view returns (uint) {... */\n      swap1\n      jump\t// out\n        /* \"contracts/1_For.sol\":2342:2422  function getB() public view returns (uint[4] memory) {... */\n    tag_24:\n        /* \"contracts/1_For.sol\":2379:2393  uint[4] memory */\n      tag_45\n      tag_46\n      jump\t// in\n    tag_45:\n        /* \"contracts/1_For.sol\":2413:2414  b */\n      0x01\n        /* \"contracts/1_For.sol\":2406:2414  return b */\n      0x04\n      dup1\n      0x20\n      mul\n      mload(0x40)\n      swap1\n      dup2\n      add\n      0x40\n      mstore\n      dup1\n      swap3\n      swap2\n      swap1\n      dup3\n      0x04\n      dup1\n      iszero\n      tag_48\n      jumpi\n      0x20\n      mul\n      dup3\n      add\n      swap2\n    tag_49:\n      dup2\n      sload\n      dup2\n      mstore\n      0x20\n      add\n      swap1\n      0x01\n      add\n      swap1\n      dup1\n      dup4\n      gt\n      tag_49\n      jumpi\n    tag_48:\n      pop\n      pop\n      pop\n      pop\n      pop\n      swap1\n      pop\n        /* \"contracts/1_For.sol\":2342:2422  function getB() public view returns (uint[4] memory) {... */\n      swap1\n      jump\t// out\n        /* \"contracts/1_For.sol\":2430:2508  function getCount() public view returns (uint) {... */\n    tag_28:\n        /* \"contracts/1_For.sol\":2471:2475  uint */\n      0x00\n        /* \"contracts/1_For.sol\":2495:2500  count */\n      sload(0x05)\n        /* \"contracts/1_For.sol\":2488:2500  return count */\n      swap1\n      pop\n        /* \"contracts/1_For.sol\":2430:2508  function getCount() public view returns (uint) {... */\n      swap1\n      jump\t// out\n        /* \"contracts/1_For.sol\":2268:2334  function pushB2(uint _n) public {... */\n    tag_32:\n        /* \"contracts/1_For.sol\":2324:2326  _n */\n      dup1\n        /* \"contracts/1_For.sol\":2311:2312  b */\n      0x01\n        /* \"contracts/1_For.sol\":2313:2318  count */\n      0x05\n      0x00\n        /* \"contracts/1_For.sol\":2313:2320  count++ */\n      dup2\n      sload\n      dup1\n      swap3\n      swap2\n      swap1\n      tag_52\n      swap1\n      tag_53\n      jump\t// in\n    tag_52:\n      swap2\n      swap1\n      pop\n      sstore\n        /* \"contracts/1_For.sol\":2311:2321  b[count++] */\n      0x04\n      dup2\n      lt\n      tag_54\n      jumpi\n      tag_55\n      tag_56\n      jump\t// in\n    tag_55:\n    tag_54:\n      add\n        /* \"contracts/1_For.sol\":2311:2326  b[count++] = _n */\n      dup2\n      swap1\n      sstore\n      pop\n        /* \"contracts/1_For.sol\":2268:2334  function pushB2(uint _n) public {... */\n      pop\n      jump\t// out\n        /* \"contracts/1_For.sol\":2170:2241  function pushB(uint n, uint _n) public {... */\n    tag_36:\n        /* \"contracts/1_For.sol\":2231:2233  _n */\n      dup1\n        /* \"contracts/1_For.sol\":2220:2221  b */\n      0x01\n        /* \"contracts/1_For.sol\":2226:2227  1 */\n      dup1\n        /* \"contracts/1_For.sol\":2222:2223  n */\n      dup5\n        /* \"contracts/1_For.sol\":2222:2227  n - 1 */\n      tag_59\n      swap2\n      swap1\n      tag_60\n      jump\t// in\n    tag_59:\n        /* \"contracts/1_For.sol\":2220:2228  b[n - 1] */\n      0x04\n      dup2\n      lt\n      tag_61\n      jumpi\n      tag_62\n      tag_56\n      jump\t// in\n    tag_62:\n    tag_61:\n      add\n        /* \"contracts/1_For.sol\":2220:2233  b[n - 1] = _n */\n      dup2\n      swap1\n      sstore\n      pop\n        /* \"contracts/1_For.sol\":2170:2241  function pushB(uint n, uint _n) public {... */\n      pop\n      pop\n      jump\t// out\n        /* \"contracts/1_For.sol\":1993:2071  function getA() public view returns(uint[] memory) {... */\n    tag_38:\n        /* \"contracts/1_For.sol\":2029:2042  uint[] memory */\n      0x60\n        /* \"contracts/1_For.sol\":2062:2063  a */\n      0x00\n        /* \"contracts/1_For.sol\":2055:2063  return a */\n      dup1\n      sload\n      dup1\n      0x20\n      mul\n      0x20\n      add\n      mload(0x40)\n      swap1\n      dup2\n      add\n      0x40\n      mstore\n      dup1\n      swap3\n      swap2\n      swap1\n      dup2\n      dup2\n      mstore\n      0x20\n      add\n      dup3\n      dup1\n      sload\n      dup1\n      iszero\n      tag_65\n      jumpi\n      0x20\n      mul\n      dup3\n      add\n      swap2\n      swap1\n      0x00\n      mstore\n      keccak256(0x00, 0x20)\n      swap1\n    tag_66:\n      dup2\n      sload\n      dup2\n      mstore\n      0x20\n      add\n      swap1\n      0x01\n      add\n      swap1\n      dup1\n      dup4\n      gt\n      tag_66\n      jumpi\n    tag_65:\n      pop\n      pop\n      pop\n      pop\n      pop\n      swap1\n      pop\n        /* \"contracts/1_For.sol\":1993:2071  function getA() public view returns(uint[] memory) {... */\n      swap1\n      jump\t// out\n    tag_46:\n      mload(0x40)\n      dup1\n      0x80\n      add\n      0x40\n      mstore\n      dup1\n      0x04\n      swap1\n      0x20\n      dup3\n      mul\n      dup1\n      calldatasize\n      dup4\n      calldatacopy\n      dup1\n      dup3\n      add\n      swap2\n      pop\n      pop\n      swap1\n      pop\n      pop\n      swap1\n      jump\t// out\n        /* \"#utility.yul\":7:84   */\n    tag_67:\n        /* \"#utility.yul\":44:51   */\n      0x00\n        /* \"#utility.yul\":73:78   */\n      dup2\n        /* \"#utility.yul\":62:78   */\n      swap1\n      pop\n        /* \"#utility.yul\":7:84   */\n      swap2\n      swap1\n      pop\n      jump\t// out\n        /* \"#utility.yul\":90:208   */\n    tag_68:\n        /* \"#utility.yul\":177:201   */\n      tag_90\n        /* \"#utility.yul\":195:200   */\n      dup2\n        /* \"#utility.yul\":177:201   */\n      tag_67\n      jump\t// in\n    tag_90:\n        /* \"#utility.yul\":172:175   */\n      dup3\n        /* \"#utility.yul\":165:202   */\n      mstore\n        /* \"#utility.yul\":90:208   */\n      pop\n      pop\n      jump\t// out\n        /* \"#utility.yul\":214:436   */\n    tag_15:\n        /* \"#utility.yul\":307:311   */\n      0x00\n        /* \"#utility.yul\":345:347   */\n      0x20\n        /* \"#utility.yul\":334:343   */\n      dup3\n        /* \"#utility.yul\":330:348   */\n      add\n        /* \"#utility.yul\":322:348   */\n      swap1\n      pop\n        /* \"#utility.yul\":358:429   */\n      tag_92\n        /* \"#utility.yul\":426:427   */\n      0x00\n        /* \"#utility.yul\":415:424   */\n      dup4\n        /* \"#utility.yul\":411:428   */\n      add\n        /* \"#utility.yul\":402:408   */\n      dup5\n        /* \"#utility.yul\":358:429   */\n      tag_68\n      jump\t// in\n    tag_92:\n        /* \"#utility.yul\":214:436   */\n      swap3\n      swap2\n      pop\n      pop\n      jump\t// out\n        /* \"#utility.yul\":523:640   */\n    tag_70:\n        /* \"#utility.yul\":632:633   */\n      0x00\n        /* \"#utility.yul\":629:630   */\n      dup1\n        /* \"#utility.yul\":622:634   */\n      revert\n        /* \"#utility.yul\":769:891   */\n    tag_72:\n        /* \"#utility.yul\":842:866   */\n      tag_97\n        /* \"#utility.yul\":860:865   */\n      dup2\n        /* \"#utility.yul\":842:866   */\n      tag_67\n      jump\t// in\n    tag_97:\n        /* \"#utility.yul\":835:840   */\n      dup2\n        /* \"#utility.yul\":832:867   */\n      eq\n        /* \"#utility.yul\":822:885   */\n      tag_98\n      jumpi\n        /* \"#utility.yul\":881:882   */\n      0x00\n        /* \"#utility.yul\":878:879   */\n      dup1\n        /* \"#utility.yul\":871:883   */\n      revert\n        /* \"#utility.yul\":822:885   */\n    tag_98:\n        /* \"#utility.yul\":769:891   */\n      pop\n      jump\t// out\n        /* \"#utility.yul\":897:1036   */\n    tag_73:\n        /* \"#utility.yul\":943:948   */\n      0x00\n        /* \"#utility.yul\":981:987   */\n      dup2\n        /* \"#utility.yul\":968:988   */\n      calldataload\n        /* \"#utility.yul\":959:988   */\n      swap1\n      pop\n        /* \"#utility.yul\":997:1030   */\n      tag_100\n        /* \"#utility.yul\":1024:1029   */\n      dup2\n        /* \"#utility.yul\":997:1030   */\n      tag_72\n      jump\t// in\n    tag_100:\n        /* \"#utility.yul\":897:1036   */\n      swap3\n      swap2\n      pop\n      pop\n      jump\t// out\n        /* \"#utility.yul\":1042:1371   */\n    tag_18:\n        /* \"#utility.yul\":1101:1107   */\n      0x00\n        /* \"#utility.yul\":1150:1152   */\n      0x20\n        /* \"#utility.yul\":1138:1147   */\n      dup3\n        /* \"#utility.yul\":1129:1136   */\n      dup5\n        /* \"#utility.yul\":1125:1148   */\n      sub\n        /* \"#utility.yul\":1121:1153   */\n      slt\n        /* \"#utility.yul\":1118:1237   */\n      iszero\n      tag_102\n      jumpi\n        /* \"#utility.yul\":1156:1235   */\n      tag_103\n      tag_70\n      jump\t// in\n    tag_103:\n        /* \"#utility.yul\":1118:1237   */\n    tag_102:\n        /* \"#utility.yul\":1276:1277   */\n      0x00\n        /* \"#utility.yul\":1301:1354   */\n      tag_104\n        /* \"#utility.yul\":1346:1353   */\n      dup5\n        /* \"#utility.yul\":1337:1343   */\n      dup3\n        /* \"#utility.yul\":1326:1335   */\n      dup6\n        /* \"#utility.yul\":1322:1344   */\n      add\n        /* \"#utility.yul\":1301:1354   */\n      tag_73\n      jump\t// in\n    tag_104:\n        /* \"#utility.yul\":1291:1354   */\n      swap2\n      pop\n        /* \"#utility.yul\":1247:1364   */\n      pop\n        /* \"#utility.yul\":1042:1371   */\n      swap3\n      swap2\n      pop\n      pop\n      jump\t// out\n        /* \"#utility.yul\":1377:1481   */\n    tag_74:\n        /* \"#utility.yul\":1442:1448   */\n      0x00\n        /* \"#utility.yul\":1470:1474   */\n      0x04\n        /* \"#utility.yul\":1460:1474   */\n      swap1\n      pop\n        /* \"#utility.yul\":1377:1481   */\n      swap2\n      swap1\n      pop\n      jump\t// out\n        /* \"#utility.yul\":1487:1630   */\n    tag_75:\n        /* \"#utility.yul\":1584:1595   */\n      0x00\n        /* \"#utility.yul\":1621:1624   */\n      dup2\n        /* \"#utility.yul\":1606:1624   */\n      swap1\n      pop\n        /* \"#utility.yul\":1487:1630   */\n      swap3\n      swap2\n      pop\n      pop\n      jump\t// out\n        /* \"#utility.yul\":1636:1734   */\n    tag_76:\n        /* \"#utility.yul\":1701:1705   */\n      0x00\n        /* \"#utility.yul\":1724:1727   */\n      dup2\n        /* \"#utility.yul\":1716:1727   */\n      swap1\n      pop\n        /* \"#utility.yul\":1636:1734   */\n      swap2\n      swap1\n      pop\n      jump\t// out\n        /* \"#utility.yul\":1740:1848   */\n    tag_77:\n        /* \"#utility.yul\":1817:1841   */\n      tag_109\n        /* \"#utility.yul\":1835:1840   */\n      dup2\n        /* \"#utility.yul\":1817:1841   */\n      tag_67\n      jump\t// in\n    tag_109:\n        /* \"#utility.yul\":1812:1815   */\n      dup3\n        /* \"#utility.yul\":1805:1842   */\n      mstore\n        /* \"#utility.yul\":1740:1848   */\n      pop\n      pop\n      jump\t// out\n        /* \"#utility.yul\":1854:2033   */\n    tag_78:\n        /* \"#utility.yul\":1923:1933   */\n      0x00\n        /* \"#utility.yul\":1944:1990   */\n      tag_111\n        /* \"#utility.yul\":1986:1989   */\n      dup4\n        /* \"#utility.yul\":1978:1984   */\n      dup4\n        /* \"#utility.yul\":1944:1990   */\n      tag_77\n      jump\t// in\n    tag_111:\n        /* \"#utility.yul\":2022:2026   */\n      0x20\n        /* \"#utility.yul\":2017:2020   */\n      dup4\n        /* \"#utility.yul\":2013:2027   */\n      add\n        /* \"#utility.yul\":1999:2027   */\n      swap1\n      pop\n        /* \"#utility.yul\":1854:2033   */\n      swap3\n      swap2\n      pop\n      pop\n      jump\t// out\n        /* \"#utility.yul\":2039:2150   */\n    tag_79:\n        /* \"#utility.yul\":2107:2111   */\n      0x00\n        /* \"#utility.yul\":2139:2143   */\n      0x20\n        /* \"#utility.yul\":2134:2137   */\n      dup3\n        /* \"#utility.yul\":2130:2144   */\n      add\n        /* \"#utility.yul\":2122:2144   */\n      swap1\n      pop\n        /* \"#utility.yul\":2039:2150   */\n      swap2\n      swap1\n      pop\n      jump\t// out\n        /* \"#utility.yul\":2188:2882   */\n    tag_80:\n        /* \"#utility.yul\":2324:2376   */\n      tag_114\n        /* \"#utility.yul\":2370:2375   */\n      dup2\n        /* \"#utility.yul\":2324:2376   */\n      tag_74\n      jump\t// in\n    tag_114:\n        /* \"#utility.yul\":2392:2476   */\n      tag_115\n        /* \"#utility.yul\":2469:2475   */\n      dup2\n        /* \"#utility.yul\":2464:2467   */\n      dup5\n        /* \"#utility.yul\":2392:2476   */\n      tag_75\n      jump\t// in\n    tag_115:\n        /* \"#utility.yul\":2385:2476   */\n      swap3\n      pop\n        /* \"#utility.yul\":2500:2554   */\n      tag_116\n        /* \"#utility.yul\":2548:2553   */\n      dup3\n        /* \"#utility.yul\":2500:2554   */\n      tag_76\n      jump\t// in\n    tag_116:\n        /* \"#utility.yul\":2577:2584   */\n      dup1\n        /* \"#utility.yul\":2608:2609   */\n      0x00\n        /* \"#utility.yul\":2593:2875   */\n    tag_117:\n        /* \"#utility.yul\":2618:2624   */\n      dup4\n        /* \"#utility.yul\":2615:2616   */\n      dup2\n        /* \"#utility.yul\":2612:2625   */\n      lt\n        /* \"#utility.yul\":2593:2875   */\n      iszero\n      tag_119\n      jumpi\n        /* \"#utility.yul\":2694:2700   */\n      dup2\n        /* \"#utility.yul\":2688:2701   */\n      mload\n        /* \"#utility.yul\":2721:2784   */\n      tag_120\n        /* \"#utility.yul\":2780:2783   */\n      dup8\n        /* \"#utility.yul\":2765:2778   */\n      dup3\n        /* \"#utility.yul\":2721:2784   */\n      tag_78\n      jump\t// in\n    tag_120:\n        /* \"#utility.yul\":2714:2784   */\n      swap7\n      pop\n        /* \"#utility.yul\":2807:2865   */\n      tag_121\n        /* \"#utility.yul\":2858:2864   */\n      dup4\n        /* \"#utility.yul\":2807:2865   */\n      tag_79\n      jump\t// in\n    tag_121:\n        /* \"#utility.yul\":2797:2865   */\n      swap3\n      pop\n        /* \"#utility.yul\":2653:2875   */\n      pop\n        /* \"#utility.yul\":2640:2641   */\n      0x01\n        /* \"#utility.yul\":2637:2638   */\n      dup2\n        /* \"#utility.yul\":2633:2642   */\n      add\n        /* \"#utility.yul\":2628:2642   */\n      swap1\n      pop\n        /* \"#utility.yul\":2593:2875   */\n      jump(tag_117)\n    tag_119:\n        /* \"#utility.yul\":2597:2611   */\n      pop\n        /* \"#utility.yul\":2300:2882   */\n      pop\n      pop\n      pop\n        /* \"#utility.yul\":2188:2882   */\n      pop\n      pop\n      jump\t// out\n        /* \"#utility.yul\":2888:3203   */\n    tag_26:\n        /* \"#utility.yul\":3027:3031   */\n      0x00\n        /* \"#utility.yul\":3065:3068   */\n      0x80\n        /* \"#utility.yul\":3054:3063   */\n      dup3\n        /* \"#utility.yul\":3050:3069   */\n      add\n        /* \"#utility.yul\":3042:3069   */\n      swap1\n      pop\n        /* \"#utility.yul\":3079:3196   */\n      tag_123\n        /* \"#utility.yul\":3193:3194   */\n      0x00\n        /* \"#utility.yul\":3182:3191   */\n      dup4\n        /* \"#utility.yul\":3178:3195   */\n      add\n        /* \"#utility.yul\":3169:3175   */\n      dup5\n        /* \"#utility.yul\":3079:3196   */\n      tag_80\n      jump\t// in\n    tag_123:\n        /* \"#utility.yul\":2888:3203   */\n      swap3\n      swap2\n      pop\n      pop\n      jump\t// out\n        /* \"#utility.yul\":3209:3683   */\n    tag_35:\n        /* \"#utility.yul\":3277:3283   */\n      0x00\n        /* \"#utility.yul\":3285:3291   */\n      dup1\n        /* \"#utility.yul\":3334:3336   */\n      0x40\n        /* \"#utility.yul\":3322:3331   */\n      dup4\n        /* \"#utility.yul\":3313:3320   */\n      dup6\n        /* \"#utility.yul\":3309:3332   */\n      sub\n        /* \"#utility.yul\":3305:3337   */\n      slt\n        /* \"#utility.yul\":3302:3421   */\n      iszero\n      tag_125\n      jumpi\n        /* \"#utility.yul\":3340:3419   */\n      tag_126\n      tag_70\n      jump\t// in\n    tag_126:\n        /* \"#utility.yul\":3302:3421   */\n    tag_125:\n        /* \"#utility.yul\":3460:3461   */\n      0x00\n        /* \"#utility.yul\":3485:3538   */\n      tag_127\n        /* \"#utility.yul\":3530:3537   */\n      dup6\n        /* \"#utility.yul\":3521:3527   */\n      dup3\n        /* \"#utility.yul\":3510:3519   */\n      dup7\n        /* \"#utility.yul\":3506:3528   */\n      add\n        /* \"#utility.yul\":3485:3538   */\n      tag_73\n      jump\t// in\n    tag_127:\n        /* \"#utility.yul\":3475:3538   */\n      swap3\n      pop\n        /* \"#utility.yul\":3431:3548   */\n      pop\n        /* \"#utility.yul\":3587:3589   */\n      0x20\n        /* \"#utility.yul\":3613:3666   */\n      tag_128\n        /* \"#utility.yul\":3658:3665   */\n      dup6\n        /* \"#utility.yul\":3649:3655   */\n      dup3\n        /* \"#utility.yul\":3638:3647   */\n      dup7\n        /* \"#utility.yul\":3634:3656   */\n      add\n        /* \"#utility.yul\":3613:3666   */\n      tag_73\n      jump\t// in\n    tag_128:\n        /* \"#utility.yul\":3603:3666   */\n      swap2\n      pop\n        /* \"#utility.yul\":3558:3676   */\n      pop\n        /* \"#utility.yul\":3209:3683   */\n      swap3\n      pop\n      swap3\n      swap1\n      pop\n      jump\t// out\n        /* \"#utility.yul\":3689:3803   */\n    tag_81:\n        /* \"#utility.yul\":3756:3762   */\n      0x00\n        /* \"#utility.yul\":3790:3795   */\n      dup2\n        /* \"#utility.yul\":3784:3796   */\n      mload\n        /* \"#utility.yul\":3774:3796   */\n      swap1\n      pop\n        /* \"#utility.yul\":3689:3803   */\n      swap2\n      swap1\n      pop\n      jump\t// out\n        /* \"#utility.yul\":3809:3993   */\n    tag_82:\n        /* \"#utility.yul\":3908:3919   */\n      0x00\n        /* \"#utility.yul\":3942:3948   */\n      dup3\n        /* \"#utility.yul\":3937:3940   */\n      dup3\n        /* \"#utility.yul\":3930:3949   */\n      mstore\n        /* \"#utility.yul\":3982:3986   */\n      0x20\n        /* \"#utility.yul\":3977:3980   */\n      dup3\n        /* \"#utility.yul\":3973:3987   */\n      add\n        /* \"#utility.yul\":3958:3987   */\n      swap1\n      pop\n        /* \"#utility.yul\":3809:3993   */\n      swap3\n      swap2\n      pop\n      pop\n      jump\t// out\n        /* \"#utility.yul\":3999:4131   */\n    tag_83:\n        /* \"#utility.yul\":4066:4070   */\n      0x00\n        /* \"#utility.yul\":4089:4092   */\n      dup2\n        /* \"#utility.yul\":4081:4092   */\n      swap1\n      pop\n        /* \"#utility.yul\":4119:4123   */\n      0x20\n        /* \"#utility.yul\":4114:4117   */\n      dup3\n        /* \"#utility.yul\":4110:4124   */\n      add\n        /* \"#utility.yul\":4102:4124   */\n      swap1\n      pop\n        /* \"#utility.yul\":3999:4131   */\n      swap2\n      swap1\n      pop\n      jump\t// out\n        /* \"#utility.yul\":4137:4250   */\n    tag_84:\n        /* \"#utility.yul\":4207:4211   */\n      0x00\n        /* \"#utility.yul\":4239:4243   */\n      0x20\n        /* \"#utility.yul\":4234:4237   */\n      dup3\n        /* \"#utility.yul\":4230:4244   */\n      add\n        /* \"#utility.yul\":4222:4244   */\n      swap1\n      pop\n        /* \"#utility.yul\":4137:4250   */\n      swap2\n      swap1\n      pop\n      jump\t// out\n        /* \"#utility.yul\":4286:5018   */\n    tag_85:\n        /* \"#utility.yul\":4405:4408   */\n      0x00\n        /* \"#utility.yul\":4434:4488   */\n      tag_134\n        /* \"#utility.yul\":4482:4487   */\n      dup3\n        /* \"#utility.yul\":4434:4488   */\n      tag_81\n      jump\t// in\n    tag_134:\n        /* \"#utility.yul\":4504:4590   */\n      tag_135\n        /* \"#utility.yul\":4583:4589   */\n      dup2\n        /* \"#utility.yul\":4578:4581   */\n      dup6\n        /* \"#utility.yul\":4504:4590   */\n      tag_82\n      jump\t// in\n    tag_135:\n        /* \"#utility.yul\":4497:4590   */\n      swap4\n      pop\n        /* \"#utility.yul\":4614:4670   */\n      tag_136\n        /* \"#utility.yul\":4664:4669   */\n      dup4\n        /* \"#utility.yul\":4614:4670   */\n      tag_83\n      jump\t// in\n    tag_136:\n        /* \"#utility.yul\":4693:4700   */\n      dup1\n        /* \"#utility.yul\":4724:4725   */\n      0x00\n        /* \"#utility.yul\":4709:4993   */\n    tag_137:\n        /* \"#utility.yul\":4734:4740   */\n      dup4\n        /* \"#utility.yul\":4731:4732   */\n      dup2\n        /* \"#utility.yul\":4728:4741   */\n      lt\n        /* \"#utility.yul\":4709:4993   */\n      iszero\n      tag_139\n      jumpi\n        /* \"#utility.yul\":4810:4816   */\n      dup2\n        /* \"#utility.yul\":4804:4817   */\n      mload\n        /* \"#utility.yul\":4837:4900   */\n      tag_140\n        /* \"#utility.yul\":4896:4899   */\n      dup9\n        /* \"#utility.yul\":4881:4894   */\n      dup3\n        /* \"#utility.yul\":4837:4900   */\n      tag_78\n      jump\t// in\n    tag_140:\n        /* \"#utility.yul\":4830:4900   */\n      swap8\n      pop\n        /* \"#utility.yul\":4923:4983   */\n      tag_141\n        /* \"#utility.yul\":4976:4982   */\n      dup4\n        /* \"#utility.yul\":4923:4983   */\n      tag_84\n      jump\t// in\n    tag_141:\n        /* \"#utility.yul\":4913:4983   */\n      swap3\n      pop\n        /* \"#utility.yul\":4769:4993   */\n      pop\n        /* \"#utility.yul\":4756:4757   */\n      0x01\n        /* \"#utility.yul\":4753:4754   */\n      dup2\n        /* \"#utility.yul\":4749:4758   */\n      add\n        /* \"#utility.yul\":4744:4758   */\n      swap1\n      pop\n        /* \"#utility.yul\":4709:4993   */\n      jump(tag_137)\n    tag_139:\n        /* \"#utility.yul\":4713:4727   */\n      pop\n        /* \"#utility.yul\":5009:5012   */\n      dup6\n        /* \"#utility.yul\":5002:5012   */\n      swap4\n      pop\n        /* \"#utility.yul\":4410:5018   */\n      pop\n      pop\n      pop\n        /* \"#utility.yul\":4286:5018   */\n      swap3\n      swap2\n      pop\n      pop\n      jump\t// out\n        /* \"#utility.yul\":5024:5397   */\n    tag_40:\n        /* \"#utility.yul\":5167:5171   */\n      0x00\n        /* \"#utility.yul\":5205:5207   */\n      0x20\n        /* \"#utility.yul\":5194:5203   */\n      dup3\n        /* \"#utility.yul\":5190:5208   */\n      add\n        /* \"#utility.yul\":5182:5208   */\n      swap1\n      pop\n        /* \"#utility.yul\":5254:5263   */\n      dup2\n        /* \"#utility.yul\":5248:5252   */\n      dup2\n        /* \"#utility.yul\":5244:5264   */\n      sub\n        /* \"#utility.yul\":5240:5241   */\n      0x00\n        /* \"#utility.yul\":5229:5238   */\n      dup4\n        /* \"#utility.yul\":5225:5242   */\n      add\n        /* \"#utility.yul\":5218:5265   */\n      mstore\n        /* \"#utility.yul\":5282:5390   */\n      tag_143\n        /* \"#utility.yul\":5385:5389   */\n      dup2\n        /* \"#utility.yul\":5376:5382   */\n      dup5\n        /* \"#utility.yul\":5282:5390   */\n      tag_85\n      jump\t// in\n    tag_143:\n        /* \"#utility.yul\":5274:5390   */\n      swap1\n      pop\n        /* \"#utility.yul\":5024:5397   */\n      swap3\n      swap2\n      pop\n      pop\n      jump\t// out\n        /* \"#utility.yul\":5403:5583   */\n    tag_86:\n        /* \"#utility.yul\":5451:5528   */\n      0x4e487b7100000000000000000000000000000000000000000000000000000000\n        /* \"#utility.yul\":5448:5449   */\n      0x00\n        /* \"#utility.yul\":5441:5529   */\n      mstore\n        /* \"#utility.yul\":5548:5552   */\n      0x11\n        /* \"#utility.yul\":5545:5546   */\n      0x04\n        /* \"#utility.yul\":5538:5553   */\n      mstore\n        /* \"#utility.yul\":5572:5576   */\n      0x24\n        /* \"#utility.yul\":5569:5570   */\n      0x00\n        /* \"#utility.yul\":5562:5577   */\n      revert\n        /* \"#utility.yul\":5589:5822   */\n    tag_53:\n        /* \"#utility.yul\":5628:5631   */\n      0x00\n        /* \"#utility.yul\":5651:5675   */\n      tag_146\n        /* \"#utility.yul\":5669:5674   */\n      dup3\n        /* \"#utility.yul\":5651:5675   */\n      tag_67\n      jump\t// in\n    tag_146:\n        /* \"#utility.yul\":5642:5675   */\n      swap2\n      pop\n        /* \"#utility.yul\":5697:5763   */\n      0xffffffffffffffffffffffffffffffffffffffffffffffffffffffffffffffff\n        /* \"#utility.yul\":5690:5695   */\n      dup3\n        /* \"#utility.yul\":5687:5764   */\n      sub\n        /* \"#utility.yul\":5684:5787   */\n      tag_147\n      jumpi\n        /* \"#utility.yul\":5767:5785   */\n      tag_148\n      tag_86\n      jump\t// in\n    tag_148:\n        /* \"#utility.yul\":5684:5787   */\n    tag_147:\n        /* \"#utility.yul\":5814:5815   */\n      0x01\n        /* \"#utility.yul\":5807:5812   */\n      dup3\n        /* \"#utility.yul\":5803:5816   */\n      add\n        /* \"#utility.yul\":5796:5816   */\n      swap1\n      pop\n        /* \"#utility.yul\":5589:5822   */\n      swap2\n      swap1\n      pop\n      jump\t// out\n        /* \"#utility.yul\":5828:6008   */\n    tag_56:\n        /* \"#utility.yul\":5876:5953   */\n      0x4e487b7100000000000000000000000000000000000000000000000000000000\n        /* \"#utility.yul\":5873:5874   */\n      0x00\n        /* \"#utility.yul\":5866:5954   */\n      mstore\n        /* \"#utility.yul\":5973:5977   */\n      0x32\n        /* \"#utility.yul\":5970:5971   */\n      0x04\n        /* \"#utility.yul\":5963:5978   */\n      mstore\n        /* \"#utility.yul\":5997:6001   */\n      0x24\n        /* \"#utility.yul\":5994:5995   */\n      0x00\n        /* \"#utility.yul\":5987:6002   */\n      revert\n        /* \"#utility.yul\":6014:6208   */\n    tag_60:\n        /* \"#utility.yul\":6054:6058   */\n      0x00\n        /* \"#utility.yul\":6074:6094   */\n      tag_151\n        /* \"#utility.yul\":6092:6093   */\n      dup3\n        /* \"#utility.yul\":6074:6094   */\n      tag_67\n      jump\t// in\n    tag_151:\n        /* \"#utility.yul\":6069:6094   */\n      swap2\n      pop\n        /* \"#utility.yul\":6108:6128   */\n      tag_152\n        /* \"#utility.yul\":6126:6127   */\n      dup4\n        /* \"#utility.yul\":6108:6128   */\n      tag_67\n      jump\t// in\n    tag_152:\n        /* \"#utility.yul\":6103:6128   */\n      swap3\n      pop\n        /* \"#utility.yul\":6152:6153   */\n      dup3\n        /* \"#utility.yul\":6149:6150   */\n      dup3\n        /* \"#utility.yul\":6145:6154   */\n      sub\n        /* \"#utility.yul\":6137:6154   */\n      swap1\n      pop\n        /* \"#utility.yul\":6176:6177   */\n      dup2\n        /* \"#utility.yul\":6170:6174   */\n      dup2\n        /* \"#utility.yul\":6167:6178   */\n      gt\n        /* \"#utility.yul\":6164:6201   */\n      iszero\n      tag_153\n      jumpi\n        /* \"#utility.yul\":6181:6199   */\n      tag_154\n      tag_86\n      jump\t// in\n    tag_154:\n        /* \"#utility.yul\":6164:6201   */\n    tag_153:\n        /* \"#utility.yul\":6014:6208   */\n      swap3\n      swap2\n      pop\n      pop\n      jump\t// out\n\n    auxdata: 0xa26469706673582212206a45cae2c5dfec137c207c2f5e267e3535d9849f534eeae120f82b0336f2f72464736f6c63430008120033\n}\n",
				"bytecode": {
					"linkReferences": {},
					"object": "608060405234801561001057600080fd5b50610644806100206000396000f3fe608060405234801561001057600080fd5b50600436106100885760003560e01c8063a87d942c1161005b578063a87d942c14610103578063b97f720214610121578063c1f69ac31461013d578063d46300fd1461015957610088565b80632a2cb21b1461008d57806340bb882d146100ab5780639441ebf4146100c7578063a1c51915146100e5575b600080fd5b610095610177565b6040516100a291906102fc565b60405180910390f35b6100c560048036038101906100c09190610348565b610180565b005b6100cf6101ac565b6040516100dc91906102fc565b60405180910390f35b6100ed6101b8565b6040516100fa9190610420565b60405180910390f35b61010b610203565b60405161011891906102fc565b60405180910390f35b61013b60048036038101906101369190610348565b61020d565b005b6101576004803603810190610152919061043b565b610240565b005b610161610269565b60405161016e9190610512565b60405180910390f35b60006004905090565b600081908060018154018082558091505060019003906000526020600020016000909190919091505550565b60008080549050905090565b6101c06102c1565b60016004806020026040519081016040528092919082600480156101f9576020028201915b8154815260200190600101908083116101e5575b5050505050905090565b6000600554905090565b8060016005600081548092919061022390610563565b9190505560048110610238576102376105ab565b5b018190555050565b806001808461024f91906105da565b600481106102605761025f6105ab565b5b01819055505050565b606060008054806020026020016040519081016040528092919081815260200182805480156102b757602002820191906000526020600020905b8154815260200190600101908083116102a3575b5050505050905090565b6040518060800160405280600490602082028036833780820191505090505090565b6000819050919050565b6102f6816102e3565b82525050565b600060208201905061031160008301846102ed565b92915050565b600080fd5b610325816102e3565b811461033057600080fd5b50565b6000813590506103428161031c565b92915050565b60006020828403121561035e5761035d610317565b5b600061036c84828501610333565b91505092915050565b600060049050919050565b600081905092915050565b6000819050919050565b61039e816102e3565b82525050565b60006103b08383610395565b60208301905092915050565b6000602082019050919050565b6103d281610375565b6103dc8184610380565b92506103e78261038b565b8060005b838110156104185781516103ff87826103a4565b965061040a836103bc565b9250506001810190506103eb565b505050505050565b600060808201905061043560008301846103c9565b92915050565b6000806040838503121561045257610451610317565b5b600061046085828601610333565b925050602061047185828601610333565b9150509250929050565b600081519050919050565b600082825260208201905092915050565b6000819050602082019050919050565b6000602082019050919050565b60006104bf8261047b565b6104c98185610486565b93506104d483610497565b8060005b838110156105055781516104ec88826103a4565b97506104f7836104a7565b9250506001810190506104d8565b5085935050505092915050565b6000602082019050818103600083015261052c81846104b4565b905092915050565b7f4e487b7100000000000000000000000000000000000000000000000000000000600052601160045260246000fd5b600061056e826102e3565b91507fffffffffffffffffffffffffffffffffffffffffffffffffffffffffffffffff82036105a05761059f610534565b5b600182019050919050565b7f4e487b7100000000000000000000000000000000000000000000000000000000600052603260045260246000fd5b60006105e5826102e3565b91506105f0836102e3565b925082820390508181111561060857610607610534565b5b9291505056fea26469706673582212206a45cae2c5dfec137c207c2f5e267e3535d9849f534eeae120f82b0336f2f72464736f6c63430008120033",
					"opcodes": "PUSH1 0x80 PUSH1 0x40 MSTORE CALLVALUE DUP1 ISZERO PUSH2 0x10 JUMPI PUSH1 0x0 DUP1 REVERT JUMPDEST POP PUSH2 0x644 DUP1 PUSH2 0x20 PUSH1 0x0 CODECOPY PUSH1 0x0 RETURN INVALID PUSH1 0x80 PUSH1 0x40 MSTORE CALLVALUE DUP1 ISZERO PUSH2 0x10 JUMPI PUSH1 0x0 DUP1 REVERT JUMPDEST POP PUSH1 0x4 CALLDATASIZE LT PUSH2 0x88 JUMPI PUSH1 0x0 CALLDATALOAD PUSH1 0xE0 SHR DUP1 PUSH4 0xA87D942C GT PUSH2 0x5B JUMPI DUP1 PUSH4 0xA87D942C EQ PUSH2 0x103 JUMPI DUP1 PUSH4 0xB97F7202 EQ PUSH2 0x121 JUMPI DUP1 PUSH4 0xC1F69AC3 EQ PUSH2 0x13D JUMPI DUP1 PUSH4 0xD46300FD EQ PUSH2 0x159 JUMPI PUSH2 0x88 JUMP JUMPDEST DUP1 PUSH4 0x2A2CB21B EQ PUSH2 0x8D JUMPI DUP1 PUSH4 0x40BB882D EQ PUSH2 0xAB JUMPI DUP1 PUSH4 0x9441EBF4 EQ PUSH2 0xC7 JUMPI DUP1 PUSH4 0xA1C51915 EQ PUSH2 0xE5 JUMPI JUMPDEST PUSH1 0x0 DUP1 REVERT JUMPDEST PUSH2 0x95 PUSH2 0x177 JUMP JUMPDEST PUSH1 0x40 MLOAD PUSH2 0xA2 SWAP2 SWAP1 PUSH2 0x2FC JUMP JUMPDEST PUSH1 0x40 MLOAD DUP1 SWAP2 SUB SWAP1 RETURN JUMPDEST PUSH2 0xC5 PUSH1 0x4 DUP1 CALLDATASIZE SUB DUP2 ADD SWAP1 PUSH2 0xC0 SWAP2 SWAP1 PUSH2 0x348 JUMP JUMPDEST PUSH2 0x180 JUMP JUMPDEST STOP JUMPDEST PUSH2 0xCF PUSH2 0x1AC JUMP JUMPDEST PUSH1 0x40 MLOAD PUSH2 0xDC SWAP2 SWAP1 PUSH2 0x2FC JUMP JUMPDEST PUSH1 0x40 MLOAD DUP1 SWAP2 SUB SWAP1 RETURN JUMPDEST PUSH2 0xED PUSH2 0x1B8 JUMP JUMPDEST PUSH1 0x40 MLOAD PUSH2 0xFA SWAP2 SWAP1 PUSH2 0x420 JUMP JUMPDEST PUSH1 0x40 MLOAD DUP1 SWAP2 SUB SWAP1 RETURN JUMPDEST PUSH2 0x10B PUSH2 0x203 JUMP JUMPDEST PUSH1 0x40 MLOAD PUSH2 0x118 SWAP2 SWAP1 PUSH2 0x2FC JUMP JUMPDEST PUSH1 0x40 MLOAD DUP1 SWAP2 SUB SWAP1 RETURN JUMPDEST PUSH2 0x13B PUSH1 0x4 DUP1 CALLDATASIZE SUB DUP2 ADD SWAP1 PUSH2 0x136 SWAP2 SWAP1 PUSH2 0x348 JUMP JUMPDEST PUSH2 0x20D JUMP JUMPDEST STOP JUMPDEST PUSH2 0x157 PUSH1 0x4 DUP1 CALLDATASIZE SUB DUP2 ADD SWAP1 PUSH2 0x152 SWAP2 SWAP1 PUSH2 0x43B JUMP JUMPDEST PUSH2 0x240 JUMP JUMPDEST STOP JUMPDEST PUSH2 0x161 PUSH2 0x269 JUMP JUMPDEST PUSH1 0x40 MLOAD PUSH2 0x16E SWAP2 SWAP1 PUSH2 0x512 JUMP JUMPDEST PUSH1 0x40 MLOAD DUP1 SWAP2 SUB SWAP1 RETURN JUMPDEST PUSH1 0x0 PUSH1 0x4 SWAP1 POP SWAP1 JUMP JUMPDEST PUSH1 0x0 DUP2 SWAP1 DUP1 PUSH1 0x1 DUP2 SLOAD ADD DUP1 DUP3 SSTORE DUP1 SWAP2 POP POP PUSH1 0x1 SWAP1 SUB SWAP1 PUSH1 0x0 MSTORE PUSH1 0x20 PUSH1 0x0 KECCAK256 ADD PUSH1 0x0 SWAP1 SWAP2 SWAP1 SWAP2 SWAP1 SWAP2 POP SSTORE POP JUMP JUMPDEST PUSH1 0x0 DUP1 DUP1 SLOAD SWAP1 POP SWAP1 POP SWAP1 JUMP JUMPDEST PUSH2 0x1C0 PUSH2 0x2C1 JUMP JUMPDEST PUSH1 0x1 PUSH1 0x4 DUP1 PUSH1 0x20 MUL PUSH1 0x40 MLOAD SWAP1 DUP2 ADD PUSH1 0x40 MSTORE DUP1 SWAP3 SWAP2 SWAP1 DUP3 PUSH1 0x4 DUP1 ISZERO PUSH2 0x1F9 JUMPI PUSH1 0x20 MUL DUP3 ADD SWAP2 JUMPDEST DUP2 SLOAD DUP2 MSTORE PUSH1 0x20 ADD SWAP1 PUSH1 0x1 ADD SWAP1 DUP1 DUP4 GT PUSH2 0x1E5 JUMPI JUMPDEST POP POP POP POP POP SWAP1 POP SWAP1 JUMP JUMPDEST PUSH1 0x0 PUSH1 0x5 SLOAD SWAP1 POP SWAP1 JUMP JUMPDEST DUP1 PUSH1 0x1 PUSH1 0x5 PUSH1 0x0 DUP2 SLOAD DUP1 SWAP3 SWAP2 SWAP1 PUSH2 0x223 SWAP1 PUSH2 0x563 JUMP JUMPDEST SWAP2 SWAP1 POP SSTORE PUSH1 0x4 DUP2 LT PUSH2 0x238 JUMPI PUSH2 0x237 PUSH2 0x5AB JUMP JUMPDEST JUMPDEST ADD DUP2 SWAP1 SSTORE POP POP JUMP JUMPDEST DUP1 PUSH1 0x1 DUP1 DUP5 PUSH2 0x24F SWAP2 SWAP1 PUSH2 0x5DA JUMP JUMPDEST PUSH1 0x4 DUP2 LT PUSH2 0x260 JUMPI PUSH2 0x25F PUSH2 0x5AB JUMP JUMPDEST JUMPDEST ADD DUP2 SWAP1 SSTORE POP POP POP JUMP JUMPDEST PUSH1 0x60 PUSH1 0x0 DUP1 SLOAD DUP1 PUSH1 0x20 MUL PUSH1 0x20 ADD PUSH1 0x40 MLOAD SWAP1 DUP2 ADD PUSH1 0x40 MSTORE DUP1 SWAP3 SWAP2 SWAP1 DUP2 DUP2 MSTORE PUSH1 0x20 ADD DUP3 DUP1 SLOAD DUP1 ISZERO PUSH2 0x2B7 JUMPI PUSH1 0x20 MUL DUP3 ADD SWAP2 SWAP1 PUSH1 0x0 MSTORE PUSH1 0x20 PUSH1 0x0 KECCAK256 SWAP1 JUMPDEST DUP2 SLOAD DUP2 MSTORE PUSH1 0x20 ADD SWAP1 PUSH1 0x1 ADD SWAP1 DUP1 DUP4 GT PUSH2 0x2A3 JUMPI JUMPDEST POP POP POP POP POP SWAP1 POP SWAP1 JUMP JUMPDEST PUSH1 0x40 MLOAD DUP1 PUSH1 0x80 ADD PUSH1 0x40 MSTORE DUP1 PUSH1 0x4 SWAP1 PUSH1 0x20 DUP3 MUL DUP1 CALLDATASIZE DUP4 CALLDATACOPY DUP1 DUP3 ADD SWAP2 POP POP SWAP1 POP POP SWAP1 JUMP JUMPDEST PUSH1 0x0 DUP2 SWAP1 POP SWAP2 SWAP1 POP JUMP JUMPDEST PUSH2 0x2F6 DUP2 PUSH2 0x2E3 JUMP JUMPDEST DUP3 MSTORE POP POP JUMP JUMPDEST PUSH1 0x0 PUSH1 0x20 DUP3 ADD SWAP1 POP PUSH2 0x311 PUSH1 0x0 DUP4 ADD DUP5 PUSH2 0x2ED JUMP JUMPDEST SWAP3 SWAP2 POP POP JUMP JUMPDEST PUSH1 0x0 DUP1 REVERT JUMPDEST PUSH2 0x325 DUP2 PUSH2 0x2E3 JUMP JUMPDEST DUP2 EQ PUSH2 0x330 JUMPI PUSH1 0x0 DUP1 REVERT JUMPDEST POP JUMP JUMPDEST PUSH1 0x0 DUP2 CALLDATALOAD SWAP1 POP PUSH2 0x342 DUP2 PUSH2 0x31C JUMP JUMPDEST SWAP3 SWAP2 POP POP JUMP JUMPDEST PUSH1 0x0 PUSH1 0x20 DUP3 DUP5 SUB SLT ISZERO PUSH2 0x35E JUMPI PUSH2 0x35D PUSH2 0x317 JUMP JUMPDEST JUMPDEST PUSH1 0x0 PUSH2 0x36C DUP5 DUP3 DUP6 ADD PUSH2 0x333 JUMP JUMPDEST SWAP2 POP POP SWAP3 SWAP2 POP POP JUMP JUMPDEST PUSH1 0x0 PUSH1 0x4 SWAP1 POP SWAP2 SWAP1 POP JUMP JUMPDEST PUSH1 0x0 DUP2 SWAP1 POP SWAP3 SWAP2 POP POP JUMP JUMPDEST PUSH1 0x0 DUP2 SWAP1 POP SWAP2 SWAP1 POP JUMP JUMPDEST PUSH2 0x39E DUP2 PUSH2 0x2E3 JUMP JUMPDEST DUP3 MSTORE POP POP JUMP JUMPDEST PUSH1 0x0 PUSH2 0x3B0 DUP4 DUP4 PUSH2 0x395 JUMP JUMPDEST PUSH1 0x20 DUP4 ADD SWAP1 POP SWAP3 SWAP2 POP POP JUMP JUMPDEST PUSH1 0x0 PUSH1 0x20 DUP3 ADD SWAP1 POP SWAP2 SWAP1 POP JUMP JUMPDEST PUSH2 0x3D2 DUP2 PUSH2 0x375 JUMP JUMPDEST PUSH2 0x3DC DUP2 DUP5 PUSH2 0x380 JUMP JUMPDEST SWAP3 POP PUSH2 0x3E7 DUP3 PUSH2 0x38B JUMP JUMPDEST DUP1 PUSH1 0x0 JUMPDEST DUP4 DUP2 LT ISZERO PUSH2 0x418 JUMPI DUP2 MLOAD PUSH2 0x3FF DUP8 DUP3 PUSH2 0x3A4 JUMP JUMPDEST SWAP7 POP PUSH2 0x40A DUP4 PUSH2 0x3BC JUMP JUMPDEST SWAP3 POP POP PUSH1 0x1 DUP2 ADD SWAP1 POP PUSH2 0x3EB JUMP JUMPDEST POP POP POP POP POP POP JUMP JUMPDEST PUSH1 0x0 PUSH1 0x80 DUP3 ADD SWAP1 POP PUSH2 0x435 PUSH1 0x0 DUP4 ADD DUP5 PUSH2 0x3C9 JUMP JUMPDEST SWAP3 SWAP2 POP POP JUMP JUMPDEST PUSH1 0x0 DUP1 PUSH1 0x40 DUP4 DUP6 SUB SLT ISZERO PUSH2 0x452 JUMPI PUSH2 0x451 PUSH2 0x317 JUMP JUMPDEST JUMPDEST PUSH1 0x0 PUSH2 0x460 DUP6 DUP3 DUP7 ADD PUSH2 0x333 JUMP JUMPDEST SWAP3 POP POP PUSH1 0x20 PUSH2 0x471 DUP6 DUP3 DUP7 ADD PUSH2 0x333 JUMP JUMPDEST SWAP2 POP POP SWAP3 POP SWAP3 SWAP1 POP JUMP JUMPDEST PUSH1 0x0 DUP2 MLOAD SWAP1 POP SWAP2 SWAP1 POP JUMP JUMPDEST PUSH1 0x0 DUP3 DUP3 MSTORE PUSH1 0x20 DUP3 ADD SWAP1 POP SWAP3 SWAP2 POP POP JUMP JUMPDEST PUSH1 0x0 DUP2 SWAP1 POP PUSH1 0x20 DUP3 ADD SWAP1 POP SWAP2 SWAP1 POP JUMP JUMPDEST PUSH1 0x0 PUSH1 0x20 DUP3 ADD SWAP1 POP SWAP2 SWAP1 POP JUMP JUMPDEST PUSH1 0x0 PUSH2 0x4BF DUP3 PUSH2 0x47B JUMP JUMPDEST PUSH2 0x4C9 DUP2 DUP6 PUSH2 0x486 JUMP JUMPDEST SWAP4 POP PUSH2 0x4D4 DUP4 PUSH2 0x497 JUMP JUMPDEST DUP1 PUSH1 0x0 JUMPDEST DUP4 DUP2 LT ISZERO PUSH2 0x505 JUMPI DUP2 MLOAD PUSH2 0x4EC DUP9 DUP3 PUSH2 0x3A4 JUMP JUMPDEST SWAP8 POP PUSH2 0x4F7 DUP4 PUSH2 0x4A7 JUMP JUMPDEST SWAP3 POP POP PUSH1 0x1 DUP2 ADD SWAP1 POP PUSH2 0x4D8 JUMP JUMPDEST POP DUP6 SWAP4 POP POP POP POP SWAP3 SWAP2 POP POP JUMP JUMPDEST PUSH1 0x0 PUSH1 0x20 DUP3 ADD SWAP1 POP DUP2 DUP2 SUB PUSH1 0x0 DUP4 ADD MSTORE PUSH2 0x52C DUP2 DUP5 PUSH2 0x4B4 JUMP JUMPDEST SWAP1 POP SWAP3 SWAP2 POP POP JUMP JUMPDEST PUSH32 0x4E487B7100000000000000000000000000000000000000000000000000000000 PUSH1 0x0 MSTORE PUSH1 0x11 PUSH1 0x4 MSTORE PUSH1 0x24 PUSH1 0x0 REVERT JUMPDEST PUSH1 0x0 PUSH2 0x56E DUP3 PUSH2 0x2E3 JUMP JUMPDEST SWAP2 POP PUSH32 0xFFFFFFFFFFFFFFFFFFFFFFFFFFFFFFFFFFFFFFFFFFFFFFFFFFFFFFFFFFFFFFFF DUP3 SUB PUSH2 0x5A0 JUMPI PUSH2 0x59F PUSH2 0x534 JUMP JUMPDEST JUMPDEST PUSH1 0x1 DUP3 ADD SWAP1 POP SWAP2 SWAP1 POP JUMP JUMPDEST PUSH32 0x4E487B7100000000000000000000000000000000000000000000000000000000 PUSH1 0x0 MSTORE PUSH1 0x32 PUSH1 0x4 MSTORE PUSH1 0x24 PUSH1 0x0 REVERT JUMPDEST PUSH1 0x0 PUSH2 0x5E5 DUP3 PUSH2 0x2E3 JUMP JUMPDEST SWAP2 POP PUSH2 0x5F0 DUP4 PUSH2 0x2E3 JUMP JUMPDEST SWAP3 POP DUP3 DUP3 SUB SWAP1 POP DUP2 DUP2 GT ISZERO PUSH2 0x608 JUMPI PUSH2 0x607 PUSH2 0x534 JUMP JUMPDEST JUMPDEST SWAP3 SWAP2 POP POP JUMP INVALID LOG2 PUSH5 0x6970667358 0x22 SLT KECCAK256 PUSH11 0x45CAE2C5DFEC137C207C2F 0x5E 0x26 PUSH31 0x3535D9849F534EEAE120F82B0336F2F72464736F6C63430008120033000000 "
				},
				"gasEstimates": {
					"creation": {
						"codeDepositCost": "320800",
						"executionCost": "362",
						"totalCost": "321162"
					},
					"external": {
						"getA()": "infinite",
						"getALength()": "2490",
						"getB()": "infinite",
						"getBLength()": "338",
						"getCount()": "2437",
						"pushA(uint256)": "46852",
						"pushB(uint256,uint256)": "infinite",
						"pushB2(uint256)": "infinite"
					}
				},
				"methodIdentifiers": {
					"getA()": "d46300fd",
					"getALength()": "9441ebf4",
					"getB()": "a1c51915",
					"getBLength()": "2a2cb21b",
					"getCount()": "a87d942c",
					"pushA(uint256)": "40bb882d",
					"pushB(uint256,uint256)": "c1f69ac3",
					"pushB2(uint256)": "b97f7202"
				}
			},
			"storageLayout": {
				"storage": [
					{
						"astId": 254,
						"contract": "contracts/1_For.sol:fixedArray",
						"label": "a",
						"offset": 0,
						"slot": "0",
						"type": "t_array(t_uint256)dyn_storage"
					},
					{
						"astId": 258,
						"contract": "contracts/1_For.sol:fixedArray",
						"label": "b",
						"offset": 0,
						"slot": "1",
						"type": "t_array(t_uint256)4_storage"
					},
					{
						"astId": 315,
						"contract": "contracts/1_For.sol:fixedArray",
						"label": "count",
						"offset": 0,
						"slot": "5",
						"type": "t_uint256"
					}
				],
				"types": {
					"t_array(t_uint256)4_storage": {
						"base": "t_uint256",
						"encoding": "inplace",
						"label": "uint256[4]",
						"numberOfBytes": "128"
					},
					"t_array(t_uint256)dyn_storage": {
						"base": "t_uint256",
						"encoding": "dynamic_array",
						"label": "uint256[]",
						"numberOfBytes": "32"
					},
					"t_uint256": {
						"encoding": "inplace",
						"label": "uint256",
						"numberOfBytes": "32"
					}
				}
			},
			"userdoc": {
				"kind": "user",
				"methods": {},
				"version": 1
			}
		}
	}
}