{
	"contracts/1_For.sol": {
		"For": {
			"abi": [
				{
					"inputs": [],
					"name": "forLoop",
					"outputs": [
						{
							"internalType": "uint256",
							"name": "",
							"type": "uint256"
						}
					],
					"stateMutability": "pure",
					"type": "function"
				},
				{
					"inputs": [],
					"name": "forLoop2",
					"outputs": [
						{
							"internalType": "uint256",
							"name": "",
							"type": "uint256"
						},
						{
							"internalType": "uint256",
							"name": "",
							"type": "uint256"
						}
					],
					"stateMutability": "pure",
					"type": "function"
				},
				{
					"inputs": [],
					"name": "forLoop3",
					"outputs": [
						{
							"internalType": "uint256",
							"name": "",
							"type": "uint256"
						},
						{
							"internalType": "uint256",
							"name": "",
							"type": "uint256"
						}
					],
					"stateMutability": "pure",
					"type": "function"
				},
				{
					"inputs": [],
					"name": "forLoop4",
					"outputs": [
						{
							"internalType": "uint256",
							"name": "",
							"type": "uint256"
						}
					],
					"stateMutability": "view",
					"type": "function"
				},
				{
					"inputs": [],
					"name": "forLoop5",
					"outputs": [
						{
							"internalType": "uint256",
							"name": "",
							"type": "uint256"
						}
					],
					"stateMutability": "view",
					"type": "function"
				},
				{
					"inputs": [],
					"name": "forLoop6",
					"outputs": [
						{
							"internalType": "uint256",
							"name": "",
							"type": "uint256"
						}
					],
					"stateMutability": "view",
					"type": "function"
				},
				{
					"inputs": [],
					"name": "getArray",
					"outputs": [
						{
							"internalType": "uint256[4]",
							"name": "",
							"type": "uint256[4]"
						}
					],
					"stateMutability": "view",
					"type": "function"
				},
				{
					"inputs": [],
					"name": "getD",
					"outputs": [
						{
							"internalType": "uint256[]",
							"name": "",
							"type": "uint256[]"
						}
					],
					"stateMutability": "view",
					"type": "function"
				},
				{
					"inputs": [
						{
							"internalType": "uint256",
							"name": "_n",
							"type": "uint256"
						}
					],
					"name": "pushArray",
					"outputs": [],
					"stateMutability": "nonpayable",
					"type": "function"
				},
				{
					"inputs": [
						{
							"internalType": "uint256",
							"name": "_n",
							"type": "uint256"
						}
					],
					"name": "pushd",
					"outputs": [],
					"stateMutability": "nonpayable",
					"type": "function"
				}
			],
			"devdoc": {
				"kind": "dev",
				"methods": {},
				"version": 1
			},
			"evm": {
				"assembly": "    /* \"contracts/1_For.sol\":67:1770  contract For {... */\n  mstore(0x40, 0x80)\n  callvalue\n  dup1\n  iszero\n  tag_1\n  jumpi\n  0x00\n  dup1\n  revert\ntag_1:\n  pop\n  dataSize(sub_0)\n  dup1\n  dataOffset(sub_0)\n  0x00\n  codecopy\n  0x00\n  return\nstop\n\nsub_0: assembly {\n        /* \"contracts/1_For.sol\":67:1770  contract For {... */\n      mstore(0x40, 0x80)\n      callvalue\n      dup1\n      iszero\n      tag_1\n      jumpi\n      0x00\n      dup1\n      revert\n    tag_1:\n      pop\n      jumpi(tag_2, lt(calldatasize, 0x04))\n      shr(0xe0, calldataload(0x00))\n      dup1\n      0x4e744db2\n      gt\n      tag_13\n      jumpi\n      dup1\n      0x4e744db2\n      eq\n      tag_8\n      jumpi\n      dup1\n      0xd469d3f6\n      eq\n      tag_9\n      jumpi\n      dup1\n      0xd504ea1d\n      eq\n      tag_10\n      jumpi\n      dup1\n      0xde438f5c\n      eq\n      tag_11\n      jumpi\n      dup1\n      0xfc0e6008\n      eq\n      tag_12\n      jumpi\n      jump(tag_2)\n    tag_13:\n      dup1\n      0x16cdf825\n      eq\n      tag_3\n      jumpi\n      dup1\n      0x1a14ff7a\n      eq\n      tag_4\n      jumpi\n      dup1\n      0x317e84d5\n      eq\n      tag_5\n      jumpi\n      dup1\n      0x448381b2\n      eq\n      tag_6\n      jumpi\n      dup1\n      0x4c9262b4\n      eq\n      tag_7\n      jumpi\n    tag_2:\n      0x00\n      dup1\n      revert\n        /* \"contracts/1_For.sol\":817:890  function pushArray(uint _n) public {... */\n    tag_3:\n      tag_14\n      0x04\n      dup1\n      calldatasize\n      sub\n      dup2\n      add\n      swap1\n      tag_15\n      swap2\n      swap1\n      tag_16\n      jump\t// in\n    tag_15:\n      tag_17\n      jump\t// in\n    tag_14:\n      stop\n        /* \"contracts/1_For.sol\":1515:1593  function getD() public view returns(uint[] memory) {... */\n    tag_4:\n      tag_18\n      tag_19\n      jump\t// in\n    tag_18:\n      mload(0x40)\n      tag_20\n      swap2\n      swap1\n      tag_21\n      jump\t// in\n    tag_20:\n      mload(0x40)\n      dup1\n      swap2\n      sub\n      swap1\n      return\n        /* \"contracts/1_For.sol\":995:1167  function forLoop4() public view returns (uint) {... */\n    tag_5:\n      tag_22\n      tag_23\n      jump\t// in\n    tag_22:\n      mload(0x40)\n      tag_24\n      swap2\n      swap1\n      tag_25\n      jump\t// in\n    tag_24:\n      mload(0x40)\n      dup1\n      swap2\n      sub\n      swap1\n      return\n        /* \"contracts/1_For.sol\":1447:1507  function pushd(uint _n) public {... */\n    tag_6:\n      tag_26\n      0x04\n      dup1\n      calldatasize\n      sub\n      dup2\n      add\n      swap1\n      tag_27\n      swap2\n      swap1\n      tag_16\n      jump\t// in\n    tag_27:\n      tag_28\n      jump\t// in\n    tag_26:\n      stop\n        /* \"contracts/1_For.sol\":1173:1356  function forLoop5() public view returns (uint) {... */\n    tag_7:\n      tag_29\n      tag_30\n      jump\t// in\n    tag_29:\n      mload(0x40)\n      tag_31\n      swap2\n      swap1\n      tag_25\n      jump\t// in\n    tag_31:\n      mload(0x40)\n      dup1\n      swap2\n      sub\n      swap1\n      return\n        /* \"contracts/1_For.sol\":299:518  function forLoop2() public pure returns(uint, uint){... */\n    tag_8:\n      tag_32\n      tag_33\n      jump\t// in\n    tag_32:\n      mload(0x40)\n      tag_34\n      swap3\n      swap2\n      swap1\n      tag_35\n      jump\t// in\n    tag_34:\n      mload(0x40)\n      dup1\n      swap2\n      sub\n      swap1\n      return\n        /* \"contracts/1_For.sol\":1601:1765  function forLoop6() public view returns(uint) {... */\n    tag_9:\n      tag_36\n      tag_37\n      jump\t// in\n    tag_36:\n      mload(0x40)\n      tag_38\n      swap2\n      swap1\n      tag_25\n      jump\t// in\n    tag_38:\n      mload(0x40)\n      dup1\n      swap2\n      sub\n      swap1\n      return\n        /* \"contracts/1_For.sol\":898:986  function getArray() public view returns (uint[4] memory) {... */\n    tag_10:\n      tag_39\n      tag_40\n      jump\t// in\n    tag_39:\n      mload(0x40)\n      tag_41\n      swap2\n      swap1\n      tag_42\n      jump\t// in\n    tag_41:\n      mload(0x40)\n      dup1\n      swap2\n      sub\n      swap1\n      return\n        /* \"contracts/1_For.sol\":526:708  function forLoop3() public pure returns(uint, uint) {... */\n    tag_11:\n      tag_43\n      tag_44\n      jump\t// in\n    tag_43:\n      mload(0x40)\n      tag_45\n      swap3\n      swap2\n      swap1\n      tag_35\n      jump\t// in\n    tag_45:\n      mload(0x40)\n      dup1\n      swap2\n      sub\n      swap1\n      return\n        /* \"contracts/1_For.sol\":87:291  function forLoop() public pure returns(uint){... */\n    tag_12:\n      tag_46\n      tag_47\n      jump\t// in\n    tag_46:\n      mload(0x40)\n      tag_48\n      swap2\n      swap1\n      tag_25\n      jump\t// in\n    tag_48:\n      mload(0x40)\n      dup1\n      swap2\n      sub\n      swap1\n      return\n        /* \"contracts/1_For.sol\":817:890  function pushArray(uint _n) public {... */\n    tag_17:\n        /* \"contracts/1_For.sol\":880:882  _n */\n      dup1\n        /* \"contracts/1_For.sol\":863:868  array */\n      0x00\n        /* \"contracts/1_For.sol\":869:874  count */\n      0x04\n      0x00\n        /* \"contracts/1_For.sol\":869:876  count++ */\n      dup2\n      sload\n      dup1\n      swap3\n      swap2\n      swap1\n      tag_50\n      swap1\n      tag_51\n      jump\t// in\n    tag_50:\n      swap2\n      swap1\n      pop\n      sstore\n        /* \"contracts/1_For.sol\":863:877  array[count++] */\n      0x04\n      dup2\n      lt\n      tag_52\n      jumpi\n      tag_53\n      tag_54\n      jump\t// in\n    tag_53:\n    tag_52:\n      add\n        /* \"contracts/1_For.sol\":863:882  array[count++] = _n */\n      dup2\n      swap1\n      sstore\n      pop\n        /* \"contracts/1_For.sol\":817:890  function pushArray(uint _n) public {... */\n      pop\n      jump\t// out\n        /* \"contracts/1_For.sol\":1515:1593  function getD() public view returns(uint[] memory) {... */\n    tag_19:\n        /* \"contracts/1_For.sol\":1551:1564  uint[] memory */\n      0x60\n        /* \"contracts/1_For.sol\":1584:1585  d */\n      0x05\n        /* \"contracts/1_For.sol\":1577:1585  return d */\n      dup1\n      sload\n      dup1\n      0x20\n      mul\n      0x20\n      add\n      mload(0x40)\n      swap1\n      dup2\n      add\n      0x40\n      mstore\n      dup1\n      swap3\n      swap2\n      swap1\n      dup2\n      dup2\n      mstore\n      0x20\n      add\n      dup3\n      dup1\n      sload\n      dup1\n      iszero\n      tag_57\n      jumpi\n      0x20\n      mul\n      dup3\n      add\n      swap2\n      swap1\n      0x00\n      mstore\n      keccak256(0x00, 0x20)\n      swap1\n    tag_58:\n      dup2\n      sload\n      dup2\n      mstore\n      0x20\n      add\n      swap1\n      0x01\n      add\n      swap1\n      dup1\n      dup4\n      gt\n      tag_58\n      jumpi\n    tag_57:\n      pop\n      pop\n      pop\n      pop\n      pop\n      swap1\n      pop\n        /* \"contracts/1_For.sol\":1515:1593  function getD() public view returns(uint[] memory) {... */\n      swap1\n      jump\t// out\n        /* \"contracts/1_For.sol\":995:1167  function forLoop4() public view returns (uint) {... */\n    tag_23:\n        /* \"contracts/1_For.sol\":1036:1040  uint */\n      0x00\n        /* \"contracts/1_For.sol\":1053:1059  uint a */\n      dup1\n        /* \"contracts/1_For.sol\":1074:1080  uint i */\n      0x00\n        /* \"contracts/1_For.sol\":1070:1141  for(uint i = 0; i < 4; i++) {... */\n    tag_60:\n        /* \"contracts/1_For.sol\":1090:1091  4 */\n      0x04\n        /* \"contracts/1_For.sol\":1086:1087  i */\n      dup2\n        /* \"contracts/1_For.sol\":1086:1091  i < 4 */\n      lt\n        /* \"contracts/1_For.sol\":1070:1141  for(uint i = 0; i < 4; i++) {... */\n      iszero\n      tag_61\n      jumpi\n        /* \"contracts/1_For.sol\":1121:1126  array */\n      0x00\n        /* \"contracts/1_For.sol\":1127:1128  i */\n      dup2\n        /* \"contracts/1_For.sol\":1121:1129  array[i] */\n      0x04\n      dup2\n      lt\n      tag_63\n      jumpi\n      tag_64\n      tag_54\n      jump\t// in\n    tag_64:\n    tag_63:\n      add\n      sload\n        /* \"contracts/1_For.sol\":1117:1118  a */\n      dup3\n        /* \"contracts/1_For.sol\":1117:1129  a + array[i] */\n      tag_66\n      swap2\n      swap1\n      tag_67\n      jump\t// in\n    tag_66:\n        /* \"contracts/1_For.sol\":1113:1129  a = a + array[i] */\n      swap2\n      pop\n        /* \"contracts/1_For.sol\":1093:1096  i++ */\n      dup1\n      dup1\n      tag_68\n      swap1\n      tag_51\n      jump\t// in\n    tag_68:\n      swap2\n      pop\n      pop\n        /* \"contracts/1_For.sol\":1070:1141  for(uint i = 0; i < 4; i++) {... */\n      jump(tag_60)\n    tag_61:\n      pop\n        /* \"contracts/1_For.sol\":1158:1159  a */\n      dup1\n        /* \"contracts/1_For.sol\":1151:1159  return a */\n      swap2\n      pop\n      pop\n        /* \"contracts/1_For.sol\":995:1167  function forLoop4() public view returns (uint) {... */\n      swap1\n      jump\t// out\n        /* \"contracts/1_For.sol\":1447:1507  function pushd(uint _n) public {... */\n    tag_28:\n        /* \"contracts/1_For.sol\":1489:1490  d */\n      0x05\n        /* \"contracts/1_For.sol\":1496:1498  _n */\n      dup2\n        /* \"contracts/1_For.sol\":1489:1499  d.push(_n) */\n      swap1\n      dup1\n      0x01\n      dup2\n      sload\n      add\n      dup1\n      dup3\n      sstore\n      dup1\n      swap2\n      pop\n      pop\n      0x01\n      swap1\n      sub\n      swap1\n      0x00\n      mstore\n      keccak256(0x00, 0x20)\n      add\n      0x00\n      swap1\n      swap2\n      swap1\n      swap2\n      swap1\n      swap2\n      pop\n      sstore\n        /* \"contracts/1_For.sol\":1447:1507  function pushd(uint _n) public {... */\n      pop\n      jump\t// out\n        /* \"contracts/1_For.sol\":1173:1356  function forLoop5() public view returns (uint) {... */\n    tag_30:\n        /* \"contracts/1_For.sol\":1214:1218  uint */\n      0x00\n        /* \"contracts/1_For.sol\":1231:1237  uint a */\n      dup1\n        /* \"contracts/1_For.sol\":1252:1258  uint i */\n      0x00\n        /* \"contracts/1_For.sol\":1248:1330  for(uint i = 0; i < array.length; i++) {... */\n    tag_72:\n        /* \"contracts/1_For.sol\":1268:1280  array.length */\n      0x04\n        /* \"contracts/1_For.sol\":1264:1265  i */\n      dup2\n        /* \"contracts/1_For.sol\":1264:1280  i < array.length */\n      lt\n        /* \"contracts/1_For.sol\":1248:1330  for(uint i = 0; i < array.length; i++) {... */\n      iszero\n      tag_73\n      jumpi\n        /* \"contracts/1_For.sol\":1310:1315  array */\n      0x00\n        /* \"contracts/1_For.sol\":1316:1317  i */\n      dup2\n        /* \"contracts/1_For.sol\":1310:1318  array[i] */\n      0x04\n      dup2\n      lt\n      tag_75\n      jumpi\n      tag_76\n      tag_54\n      jump\t// in\n    tag_76:\n    tag_75:\n      add\n      sload\n        /* \"contracts/1_For.sol\":1306:1307  a */\n      dup3\n        /* \"contracts/1_For.sol\":1306:1318  a + array[i] */\n      tag_78\n      swap2\n      swap1\n      tag_67\n      jump\t// in\n    tag_78:\n        /* \"contracts/1_For.sol\":1302:1318  a = a + array[i] */\n      swap2\n      pop\n        /* \"contracts/1_For.sol\":1282:1285  i++ */\n      dup1\n      dup1\n      tag_79\n      swap1\n      tag_51\n      jump\t// in\n    tag_79:\n      swap2\n      pop\n      pop\n        /* \"contracts/1_For.sol\":1248:1330  for(uint i = 0; i < array.length; i++) {... */\n      jump(tag_72)\n    tag_73:\n      pop\n        /* \"contracts/1_For.sol\":1347:1348  a */\n      dup1\n        /* \"contracts/1_For.sol\":1340:1348  return a */\n      swap2\n      pop\n      pop\n        /* \"contracts/1_For.sol\":1173:1356  function forLoop5() public view returns (uint) {... */\n      swap1\n      jump\t// out\n        /* \"contracts/1_For.sol\":299:518  function forLoop2() public pure returns(uint, uint){... */\n    tag_33:\n        /* \"contracts/1_For.sol\":339:343  uint */\n      0x00\n        /* \"contracts/1_For.sol\":345:349  uint */\n      dup1\n        /* \"contracts/1_For.sol\":361:367  uint a */\n      0x00\n        /* \"contracts/1_For.sol\":378:384  uint i */\n      dup1\n        /* \"contracts/1_For.sol\":403:404  1 */\n      0x01\n        /* \"contracts/1_For.sol\":401:404  i=1 */\n      swap1\n      pop\n        /* \"contracts/1_For.sol\":397:486  for(i=1; i<6; i++ /*시작점; 끝점; 변화방식*/) {... */\n    tag_81:\n        /* \"contracts/1_For.sol\":408:409  6 */\n      0x06\n        /* \"contracts/1_For.sol\":406:407  i */\n      dup2\n        /* \"contracts/1_For.sol\":406:409  i<6 */\n      lt\n        /* \"contracts/1_For.sol\":397:486  for(i=1; i<6; i++ /*시작점; 끝점; 변화방식*/) {... */\n      iszero\n      tag_82\n      jumpi\n        /* \"contracts/1_For.sol\":473:474  i */\n      dup1\n        /* \"contracts/1_For.sol\":471:472  a */\n      dup3\n        /* \"contracts/1_For.sol\":471:474  a+i */\n      tag_84\n      swap2\n      swap1\n      tag_67\n      jump\t// in\n    tag_84:\n        /* \"contracts/1_For.sol\":467:474  a = a+i */\n      swap2\n      pop\n        /* \"contracts/1_For.sol\":411:414  i++ */\n      dup1\n      dup1\n      tag_85\n      swap1\n      tag_51\n      jump\t// in\n    tag_85:\n      swap2\n      pop\n      pop\n        /* \"contracts/1_For.sol\":397:486  for(i=1; i<6; i++ /*시작점; 끝점; 변화방식*/) {... */\n      jump(tag_81)\n    tag_82:\n        /* \"contracts/1_For.sol\":506:507  a */\n      dup2\n        /* \"contracts/1_For.sol\":508:509  i */\n      dup2\n        /* \"contracts/1_For.sol\":498:510  return (a,i) */\n      swap4\n      pop\n      swap4\n      pop\n      pop\n      pop\n        /* \"contracts/1_For.sol\":299:518  function forLoop2() public pure returns(uint, uint){... */\n      swap1\n      swap2\n      jump\t// out\n        /* \"contracts/1_For.sol\":1601:1765  function forLoop6() public view returns(uint) {... */\n    tag_37:\n        /* \"contracts/1_For.sol\":1641:1645  uint */\n      0x00\n        /* \"contracts/1_For.sol\":1658:1664  uint a */\n      dup1\n        /* \"contracts/1_For.sol\":1679:1685  uint i */\n      0x00\n        /* \"contracts/1_For.sol\":1675:1739  for(uint i=0;i<d.length;i++) {... */\n    tag_87:\n        /* \"contracts/1_For.sol\":1690:1691  d */\n      0x05\n        /* \"contracts/1_For.sol\":1690:1698  d.length */\n      dup1\n      sload\n      swap1\n      pop\n        /* \"contracts/1_For.sol\":1688:1689  i */\n      dup2\n        /* \"contracts/1_For.sol\":1688:1698  i<d.length */\n      lt\n        /* \"contracts/1_For.sol\":1675:1739  for(uint i=0;i<d.length;i++) {... */\n      iszero\n      tag_88\n      jumpi\n        /* \"contracts/1_For.sol\":1723:1724  d */\n      0x05\n        /* \"contracts/1_For.sol\":1725:1726  i */\n      dup2\n        /* \"contracts/1_For.sol\":1723:1727  d[i] */\n      dup2\n      sload\n      dup2\n      lt\n      tag_90\n      jumpi\n      tag_91\n      tag_54\n      jump\t// in\n    tag_91:\n    tag_90:\n      swap1\n      0x00\n      mstore\n      keccak256(0x00, 0x20)\n      add\n      sload\n        /* \"contracts/1_For.sol\":1721:1722  a */\n      dup3\n        /* \"contracts/1_For.sol\":1721:1727  a+d[i] */\n      tag_93\n      swap2\n      swap1\n      tag_67\n      jump\t// in\n    tag_93:\n        /* \"contracts/1_For.sol\":1719:1727  a=a+d[i] */\n      swap2\n      pop\n        /* \"contracts/1_For.sol\":1699:1702  i++ */\n      dup1\n      dup1\n      tag_94\n      swap1\n      tag_51\n      jump\t// in\n    tag_94:\n      swap2\n      pop\n      pop\n        /* \"contracts/1_For.sol\":1675:1739  for(uint i=0;i<d.length;i++) {... */\n      jump(tag_87)\n    tag_88:\n      pop\n        /* \"contracts/1_For.sol\":1756:1757  a */\n      dup1\n        /* \"contracts/1_For.sol\":1749:1757  return a */\n      swap2\n      pop\n      pop\n        /* \"contracts/1_For.sol\":1601:1765  function forLoop6() public view returns(uint) {... */\n      swap1\n      jump\t// out\n        /* \"contracts/1_For.sol\":898:986  function getArray() public view returns (uint[4] memory) {... */\n    tag_40:\n        /* \"contracts/1_For.sol\":939:953  uint[4] memory */\n      tag_95\n      tag_96\n      jump\t// in\n    tag_95:\n        /* \"contracts/1_For.sol\":973:978  array */\n      0x00\n        /* \"contracts/1_For.sol\":966:978  return array */\n      0x04\n      dup1\n      0x20\n      mul\n      mload(0x40)\n      swap1\n      dup2\n      add\n      0x40\n      mstore\n      dup1\n      swap3\n      swap2\n      swap1\n      dup3\n      0x04\n      dup1\n      iszero\n      tag_98\n      jumpi\n      0x20\n      mul\n      dup3\n      add\n      swap2\n    tag_99:\n      dup2\n      sload\n      dup2\n      mstore\n      0x20\n      add\n      swap1\n      0x01\n      add\n      swap1\n      dup1\n      dup4\n      gt\n      tag_99\n      jumpi\n    tag_98:\n      pop\n      pop\n      pop\n      pop\n      pop\n      swap1\n      pop\n        /* \"contracts/1_For.sol\":898:986  function getArray() public view returns (uint[4] memory) {... */\n      swap1\n      jump\t// out\n        /* \"contracts/1_For.sol\":526:708  function forLoop3() public pure returns(uint, uint) {... */\n    tag_44:\n        /* \"contracts/1_For.sol\":566:570  uint */\n      0x00\n        /* \"contracts/1_For.sol\":572:576  uint */\n      dup1\n        /* \"contracts/1_For.sol\":589:595  uint a */\n      0x00\n        /* \"contracts/1_For.sol\":606:612  uint i */\n      dup1\n        /* \"contracts/1_For.sol\":631:632  1 */\n      0x01\n        /* \"contracts/1_For.sol\":629:632  i=1 */\n      swap1\n      pop\n        /* \"contracts/1_For.sol\":625:676  for(i=1;i<=5; i++) {... */\n    tag_101:\n        /* \"contracts/1_For.sol\":636:637  5 */\n      0x05\n        /* \"contracts/1_For.sol\":633:634  i */\n      dup2\n        /* \"contracts/1_For.sol\":633:637  i<=5 */\n      gt\n        /* \"contracts/1_For.sol\":625:676  for(i=1;i<=5; i++) {... */\n      tag_102\n      jumpi\n        /* \"contracts/1_For.sol\":663:664  i */\n      dup1\n        /* \"contracts/1_For.sol\":661:662  a */\n      dup3\n        /* \"contracts/1_For.sol\":661:664  a+i */\n      tag_104\n      swap2\n      swap1\n      tag_67\n      jump\t// in\n    tag_104:\n        /* \"contracts/1_For.sol\":659:664  a=a+i */\n      swap2\n      pop\n        /* \"contracts/1_For.sol\":639:642  i++ */\n      dup1\n      dup1\n      tag_105\n      swap1\n      tag_51\n      jump\t// in\n    tag_105:\n      swap2\n      pop\n      pop\n        /* \"contracts/1_For.sol\":625:676  for(i=1;i<=5; i++) {... */\n      jump(tag_101)\n    tag_102:\n        /* \"contracts/1_For.sol\":696:697  a */\n      dup2\n        /* \"contracts/1_For.sol\":698:699  i */\n      dup2\n        /* \"contracts/1_For.sol\":688:700  return (a,i) */\n      swap4\n      pop\n      swap4\n      pop\n      pop\n      pop\n        /* \"contracts/1_For.sol\":526:708  function forLoop3() public pure returns(uint, uint) {... */\n      swap1\n      swap2\n      jump\t// out\n        /* \"contracts/1_For.sol\":87:291  function forLoop() public pure returns(uint){... */\n    tag_47:\n        /* \"contracts/1_For.sol\":126:130  uint */\n      0x00\n        /* \"contracts/1_For.sol\":142:148  uint a */\n      dup1\n        /* \"contracts/1_For.sol\":165:171  uint i */\n      0x00\n        /* \"contracts/1_For.sol\":172:173  1 */\n      0x01\n        /* \"contracts/1_For.sol\":165:173  uint i=1 */\n      swap1\n      pop\n        /* \"contracts/1_For.sol\":161:263  for(uint i=1; i<6; i++ /*시작점; 끝점; 변화방식*/) {... */\n    tag_107:\n        /* \"contracts/1_For.sol\":177:178  6 */\n      0x06\n        /* \"contracts/1_For.sol\":175:176  i */\n      dup2\n        /* \"contracts/1_For.sol\":175:178  i<6 */\n      lt\n        /* \"contracts/1_For.sol\":161:263  for(uint i=1; i<6; i++ /*시작점; 끝점; 변화방식*/) {... */\n      iszero\n      tag_108\n      jumpi\n        /* \"contracts/1_For.sol\":242:243  i */\n      dup1\n        /* \"contracts/1_For.sol\":240:241  a */\n      dup3\n        /* \"contracts/1_For.sol\":240:243  a+i */\n      tag_110\n      swap2\n      swap1\n      tag_67\n      jump\t// in\n    tag_110:\n        /* \"contracts/1_For.sol\":236:243  a = a+i */\n      swap2\n      pop\n        /* \"contracts/1_For.sol\":180:183  i++ */\n      dup1\n      dup1\n      tag_111\n      swap1\n      tag_51\n      jump\t// in\n    tag_111:\n      swap2\n      pop\n      pop\n        /* \"contracts/1_For.sol\":161:263  for(uint i=1; i<6; i++ /*시작점; 끝점; 변화방식*/) {... */\n      jump(tag_107)\n    tag_108:\n      pop\n        /* \"contracts/1_For.sol\":282:283  a */\n      dup1\n        /* \"contracts/1_For.sol\":275:283  return a */\n      swap2\n      pop\n      pop\n        /* \"contracts/1_For.sol\":87:291  function forLoop() public pure returns(uint){... */\n      swap1\n      jump\t// out\n    tag_96:\n      mload(0x40)\n      dup1\n      0x80\n      add\n      0x40\n      mstore\n      dup1\n      0x04\n      swap1\n      0x20\n      dup3\n      mul\n      dup1\n      calldatasize\n      dup4\n      calldatacopy\n      dup1\n      dup3\n      add\n      swap2\n      pop\n      pop\n      swap1\n      pop\n      pop\n      swap1\n      jump\t// out\n        /* \"#utility.yul\":88:205   */\n    tag_113:\n        /* \"#utility.yul\":197:198   */\n      0x00\n        /* \"#utility.yul\":194:195   */\n      dup1\n        /* \"#utility.yul\":187:199   */\n      revert\n        /* \"#utility.yul\":334:411   */\n    tag_115:\n        /* \"#utility.yul\":371:378   */\n      0x00\n        /* \"#utility.yul\":400:405   */\n      dup2\n        /* \"#utility.yul\":389:405   */\n      swap1\n      pop\n        /* \"#utility.yul\":334:411   */\n      swap2\n      swap1\n      pop\n      jump\t// out\n        /* \"#utility.yul\":417:539   */\n    tag_116:\n        /* \"#utility.yul\":490:514   */\n      tag_138\n        /* \"#utility.yul\":508:513   */\n      dup2\n        /* \"#utility.yul\":490:514   */\n      tag_115\n      jump\t// in\n    tag_138:\n        /* \"#utility.yul\":483:488   */\n      dup2\n        /* \"#utility.yul\":480:515   */\n      eq\n        /* \"#utility.yul\":470:533   */\n      tag_139\n      jumpi\n        /* \"#utility.yul\":529:530   */\n      0x00\n        /* \"#utility.yul\":526:527   */\n      dup1\n        /* \"#utility.yul\":519:531   */\n      revert\n        /* \"#utility.yul\":470:533   */\n    tag_139:\n        /* \"#utility.yul\":417:539   */\n      pop\n      jump\t// out\n        /* \"#utility.yul\":545:684   */\n    tag_117:\n        /* \"#utility.yul\":591:596   */\n      0x00\n        /* \"#utility.yul\":629:635   */\n      dup2\n        /* \"#utility.yul\":616:636   */\n      calldataload\n        /* \"#utility.yul\":607:636   */\n      swap1\n      pop\n        /* \"#utility.yul\":645:678   */\n      tag_141\n        /* \"#utility.yul\":672:677   */\n      dup2\n        /* \"#utility.yul\":645:678   */\n      tag_116\n      jump\t// in\n    tag_141:\n        /* \"#utility.yul\":545:684   */\n      swap3\n      swap2\n      pop\n      pop\n      jump\t// out\n        /* \"#utility.yul\":690:1019   */\n    tag_16:\n        /* \"#utility.yul\":749:755   */\n      0x00\n        /* \"#utility.yul\":798:800   */\n      0x20\n        /* \"#utility.yul\":786:795   */\n      dup3\n        /* \"#utility.yul\":777:784   */\n      dup5\n        /* \"#utility.yul\":773:796   */\n      sub\n        /* \"#utility.yul\":769:801   */\n      slt\n        /* \"#utility.yul\":766:885   */\n      iszero\n      tag_143\n      jumpi\n        /* \"#utility.yul\":804:883   */\n      tag_144\n      tag_113\n      jump\t// in\n    tag_144:\n        /* \"#utility.yul\":766:885   */\n    tag_143:\n        /* \"#utility.yul\":924:925   */\n      0x00\n        /* \"#utility.yul\":949:1002   */\n      tag_145\n        /* \"#utility.yul\":994:1001   */\n      dup5\n        /* \"#utility.yul\":985:991   */\n      dup3\n        /* \"#utility.yul\":974:983   */\n      dup6\n        /* \"#utility.yul\":970:992   */\n      add\n        /* \"#utility.yul\":949:1002   */\n      tag_117\n      jump\t// in\n    tag_145:\n        /* \"#utility.yul\":939:1002   */\n      swap2\n      pop\n        /* \"#utility.yul\":895:1012   */\n      pop\n        /* \"#utility.yul\":690:1019   */\n      swap3\n      swap2\n      pop\n      pop\n      jump\t// out\n        /* \"#utility.yul\":1025:1139   */\n    tag_118:\n        /* \"#utility.yul\":1092:1098   */\n      0x00\n        /* \"#utility.yul\":1126:1131   */\n      dup2\n        /* \"#utility.yul\":1120:1132   */\n      mload\n        /* \"#utility.yul\":1110:1132   */\n      swap1\n      pop\n        /* \"#utility.yul\":1025:1139   */\n      swap2\n      swap1\n      pop\n      jump\t// out\n        /* \"#utility.yul\":1145:1329   */\n    tag_119:\n        /* \"#utility.yul\":1244:1255   */\n      0x00\n        /* \"#utility.yul\":1278:1284   */\n      dup3\n        /* \"#utility.yul\":1273:1276   */\n      dup3\n        /* \"#utility.yul\":1266:1285   */\n      mstore\n        /* \"#utility.yul\":1318:1322   */\n      0x20\n        /* \"#utility.yul\":1313:1316   */\n      dup3\n        /* \"#utility.yul\":1309:1323   */\n      add\n        /* \"#utility.yul\":1294:1323   */\n      swap1\n      pop\n        /* \"#utility.yul\":1145:1329   */\n      swap3\n      swap2\n      pop\n      pop\n      jump\t// out\n        /* \"#utility.yul\":1335:1467   */\n    tag_120:\n        /* \"#utility.yul\":1402:1406   */\n      0x00\n        /* \"#utility.yul\":1425:1428   */\n      dup2\n        /* \"#utility.yul\":1417:1428   */\n      swap1\n      pop\n        /* \"#utility.yul\":1455:1459   */\n      0x20\n        /* \"#utility.yul\":1450:1453   */\n      dup3\n        /* \"#utility.yul\":1446:1460   */\n      add\n        /* \"#utility.yul\":1438:1460   */\n      swap1\n      pop\n        /* \"#utility.yul\":1335:1467   */\n      swap2\n      swap1\n      pop\n      jump\t// out\n        /* \"#utility.yul\":1473:1581   */\n    tag_121:\n        /* \"#utility.yul\":1550:1574   */\n      tag_150\n        /* \"#utility.yul\":1568:1573   */\n      dup2\n        /* \"#utility.yul\":1550:1574   */\n      tag_115\n      jump\t// in\n    tag_150:\n        /* \"#utility.yul\":1545:1548   */\n      dup3\n        /* \"#utility.yul\":1538:1575   */\n      mstore\n        /* \"#utility.yul\":1473:1581   */\n      pop\n      pop\n      jump\t// out\n        /* \"#utility.yul\":1587:1766   */\n    tag_122:\n        /* \"#utility.yul\":1656:1666   */\n      0x00\n        /* \"#utility.yul\":1677:1723   */\n      tag_152\n        /* \"#utility.yul\":1719:1722   */\n      dup4\n        /* \"#utility.yul\":1711:1717   */\n      dup4\n        /* \"#utility.yul\":1677:1723   */\n      tag_121\n      jump\t// in\n    tag_152:\n        /* \"#utility.yul\":1755:1759   */\n      0x20\n        /* \"#utility.yul\":1750:1753   */\n      dup4\n        /* \"#utility.yul\":1746:1760   */\n      add\n        /* \"#utility.yul\":1732:1760   */\n      swap1\n      pop\n        /* \"#utility.yul\":1587:1766   */\n      swap3\n      swap2\n      pop\n      pop\n      jump\t// out\n        /* \"#utility.yul\":1772:1885   */\n    tag_123:\n        /* \"#utility.yul\":1842:1846   */\n      0x00\n        /* \"#utility.yul\":1874:1878   */\n      0x20\n        /* \"#utility.yul\":1869:1872   */\n      dup3\n        /* \"#utility.yul\":1865:1879   */\n      add\n        /* \"#utility.yul\":1857:1879   */\n      swap1\n      pop\n        /* \"#utility.yul\":1772:1885   */\n      swap2\n      swap1\n      pop\n      jump\t// out\n        /* \"#utility.yul\":1921:2653   */\n    tag_124:\n        /* \"#utility.yul\":2040:2043   */\n      0x00\n        /* \"#utility.yul\":2069:2123   */\n      tag_155\n        /* \"#utility.yul\":2117:2122   */\n      dup3\n        /* \"#utility.yul\":2069:2123   */\n      tag_118\n      jump\t// in\n    tag_155:\n        /* \"#utility.yul\":2139:2225   */\n      tag_156\n        /* \"#utility.yul\":2218:2224   */\n      dup2\n        /* \"#utility.yul\":2213:2216   */\n      dup6\n        /* \"#utility.yul\":2139:2225   */\n      tag_119\n      jump\t// in\n    tag_156:\n        /* \"#utility.yul\":2132:2225   */\n      swap4\n      pop\n        /* \"#utility.yul\":2249:2305   */\n      tag_157\n        /* \"#utility.yul\":2299:2304   */\n      dup4\n        /* \"#utility.yul\":2249:2305   */\n      tag_120\n      jump\t// in\n    tag_157:\n        /* \"#utility.yul\":2328:2335   */\n      dup1\n        /* \"#utility.yul\":2359:2360   */\n      0x00\n        /* \"#utility.yul\":2344:2628   */\n    tag_158:\n        /* \"#utility.yul\":2369:2375   */\n      dup4\n        /* \"#utility.yul\":2366:2367   */\n      dup2\n        /* \"#utility.yul\":2363:2376   */\n      lt\n        /* \"#utility.yul\":2344:2628   */\n      iszero\n      tag_160\n      jumpi\n        /* \"#utility.yul\":2445:2451   */\n      dup2\n        /* \"#utility.yul\":2439:2452   */\n      mload\n        /* \"#utility.yul\":2472:2535   */\n      tag_161\n        /* \"#utility.yul\":2531:2534   */\n      dup9\n        /* \"#utility.yul\":2516:2529   */\n      dup3\n        /* \"#utility.yul\":2472:2535   */\n      tag_122\n      jump\t// in\n    tag_161:\n        /* \"#utility.yul\":2465:2535   */\n      swap8\n      pop\n        /* \"#utility.yul\":2558:2618   */\n      tag_162\n        /* \"#utility.yul\":2611:2617   */\n      dup4\n        /* \"#utility.yul\":2558:2618   */\n      tag_123\n      jump\t// in\n    tag_162:\n        /* \"#utility.yul\":2548:2618   */\n      swap3\n      pop\n        /* \"#utility.yul\":2404:2628   */\n      pop\n        /* \"#utility.yul\":2391:2392   */\n      0x01\n        /* \"#utility.yul\":2388:2389   */\n      dup2\n        /* \"#utility.yul\":2384:2393   */\n      add\n        /* \"#utility.yul\":2379:2393   */\n      swap1\n      pop\n        /* \"#utility.yul\":2344:2628   */\n      jump(tag_158)\n    tag_160:\n        /* \"#utility.yul\":2348:2362   */\n      pop\n        /* \"#utility.yul\":2644:2647   */\n      dup6\n        /* \"#utility.yul\":2637:2647   */\n      swap4\n      pop\n        /* \"#utility.yul\":2045:2653   */\n      pop\n      pop\n      pop\n        /* \"#utility.yul\":1921:2653   */\n      swap3\n      swap2\n      pop\n      pop\n      jump\t// out\n        /* \"#utility.yul\":2659:3032   */\n    tag_21:\n        /* \"#utility.yul\":2802:2806   */\n      0x00\n        /* \"#utility.yul\":2840:2842   */\n      0x20\n        /* \"#utility.yul\":2829:2838   */\n      dup3\n        /* \"#utility.yul\":2825:2843   */\n      add\n        /* \"#utility.yul\":2817:2843   */\n      swap1\n      pop\n        /* \"#utility.yul\":2889:2898   */\n      dup2\n        /* \"#utility.yul\":2883:2887   */\n      dup2\n        /* \"#utility.yul\":2879:2899   */\n      sub\n        /* \"#utility.yul\":2875:2876   */\n      0x00\n        /* \"#utility.yul\":2864:2873   */\n      dup4\n        /* \"#utility.yul\":2860:2877   */\n      add\n        /* \"#utility.yul\":2853:2900   */\n      mstore\n        /* \"#utility.yul\":2917:3025   */\n      tag_164\n        /* \"#utility.yul\":3020:3024   */\n      dup2\n        /* \"#utility.yul\":3011:3017   */\n      dup5\n        /* \"#utility.yul\":2917:3025   */\n      tag_124\n      jump\t// in\n    tag_164:\n        /* \"#utility.yul\":2909:3025   */\n      swap1\n      pop\n        /* \"#utility.yul\":2659:3032   */\n      swap3\n      swap2\n      pop\n      pop\n      jump\t// out\n        /* \"#utility.yul\":3038:3156   */\n    tag_125:\n        /* \"#utility.yul\":3125:3149   */\n      tag_166\n        /* \"#utility.yul\":3143:3148   */\n      dup2\n        /* \"#utility.yul\":3125:3149   */\n      tag_115\n      jump\t// in\n    tag_166:\n        /* \"#utility.yul\":3120:3123   */\n      dup3\n        /* \"#utility.yul\":3113:3150   */\n      mstore\n        /* \"#utility.yul\":3038:3156   */\n      pop\n      pop\n      jump\t// out\n        /* \"#utility.yul\":3162:3384   */\n    tag_25:\n        /* \"#utility.yul\":3255:3259   */\n      0x00\n        /* \"#utility.yul\":3293:3295   */\n      0x20\n        /* \"#utility.yul\":3282:3291   */\n      dup3\n        /* \"#utility.yul\":3278:3296   */\n      add\n        /* \"#utility.yul\":3270:3296   */\n      swap1\n      pop\n        /* \"#utility.yul\":3306:3377   */\n      tag_168\n        /* \"#utility.yul\":3374:3375   */\n      0x00\n        /* \"#utility.yul\":3363:3372   */\n      dup4\n        /* \"#utility.yul\":3359:3376   */\n      add\n        /* \"#utility.yul\":3350:3356   */\n      dup5\n        /* \"#utility.yul\":3306:3377   */\n      tag_125\n      jump\t// in\n    tag_168:\n        /* \"#utility.yul\":3162:3384   */\n      swap3\n      swap2\n      pop\n      pop\n      jump\t// out\n        /* \"#utility.yul\":3390:3722   */\n    tag_35:\n        /* \"#utility.yul\":3511:3515   */\n      0x00\n        /* \"#utility.yul\":3549:3551   */\n      0x40\n        /* \"#utility.yul\":3538:3547   */\n      dup3\n        /* \"#utility.yul\":3534:3552   */\n      add\n        /* \"#utility.yul\":3526:3552   */\n      swap1\n      pop\n        /* \"#utility.yul\":3562:3633   */\n      tag_170\n        /* \"#utility.yul\":3630:3631   */\n      0x00\n        /* \"#utility.yul\":3619:3628   */\n      dup4\n        /* \"#utility.yul\":3615:3632   */\n      add\n        /* \"#utility.yul\":3606:3612   */\n      dup6\n        /* \"#utility.yul\":3562:3633   */\n      tag_125\n      jump\t// in\n    tag_170:\n        /* \"#utility.yul\":3643:3715   */\n      tag_171\n        /* \"#utility.yul\":3711:3713   */\n      0x20\n        /* \"#utility.yul\":3700:3709   */\n      dup4\n        /* \"#utility.yul\":3696:3714   */\n      add\n        /* \"#utility.yul\":3687:3693   */\n      dup5\n        /* \"#utility.yul\":3643:3715   */\n      tag_125\n      jump\t// in\n    tag_171:\n        /* \"#utility.yul\":3390:3722   */\n      swap4\n      swap3\n      pop\n      pop\n      pop\n      jump\t// out\n        /* \"#utility.yul\":3728:3832   */\n    tag_126:\n        /* \"#utility.yul\":3793:3799   */\n      0x00\n        /* \"#utility.yul\":3821:3825   */\n      0x04\n        /* \"#utility.yul\":3811:3825   */\n      swap1\n      pop\n        /* \"#utility.yul\":3728:3832   */\n      swap2\n      swap1\n      pop\n      jump\t// out\n        /* \"#utility.yul\":3838:3981   */\n    tag_127:\n        /* \"#utility.yul\":3935:3946   */\n      0x00\n        /* \"#utility.yul\":3972:3975   */\n      dup2\n        /* \"#utility.yul\":3957:3975   */\n      swap1\n      pop\n        /* \"#utility.yul\":3838:3981   */\n      swap3\n      swap2\n      pop\n      pop\n      jump\t// out\n        /* \"#utility.yul\":3987:4085   */\n    tag_128:\n        /* \"#utility.yul\":4052:4056   */\n      0x00\n        /* \"#utility.yul\":4075:4078   */\n      dup2\n        /* \"#utility.yul\":4067:4078   */\n      swap1\n      pop\n        /* \"#utility.yul\":3987:4085   */\n      swap2\n      swap1\n      pop\n      jump\t// out\n        /* \"#utility.yul\":4091:4202   */\n    tag_129:\n        /* \"#utility.yul\":4159:4163   */\n      0x00\n        /* \"#utility.yul\":4191:4195   */\n      0x20\n        /* \"#utility.yul\":4186:4189   */\n      dup3\n        /* \"#utility.yul\":4182:4196   */\n      add\n        /* \"#utility.yul\":4174:4196   */\n      swap1\n      pop\n        /* \"#utility.yul\":4091:4202   */\n      swap2\n      swap1\n      pop\n      jump\t// out\n        /* \"#utility.yul\":4240:4934   */\n    tag_130:\n        /* \"#utility.yul\":4376:4428   */\n      tag_177\n        /* \"#utility.yul\":4422:4427   */\n      dup2\n        /* \"#utility.yul\":4376:4428   */\n      tag_126\n      jump\t// in\n    tag_177:\n        /* \"#utility.yul\":4444:4528   */\n      tag_178\n        /* \"#utility.yul\":4521:4527   */\n      dup2\n        /* \"#utility.yul\":4516:4519   */\n      dup5\n        /* \"#utility.yul\":4444:4528   */\n      tag_127\n      jump\t// in\n    tag_178:\n        /* \"#utility.yul\":4437:4528   */\n      swap3\n      pop\n        /* \"#utility.yul\":4552:4606   */\n      tag_179\n        /* \"#utility.yul\":4600:4605   */\n      dup3\n        /* \"#utility.yul\":4552:4606   */\n      tag_128\n      jump\t// in\n    tag_179:\n        /* \"#utility.yul\":4629:4636   */\n      dup1\n        /* \"#utility.yul\":4660:4661   */\n      0x00\n        /* \"#utility.yul\":4645:4927   */\n    tag_180:\n        /* \"#utility.yul\":4670:4676   */\n      dup4\n        /* \"#utility.yul\":4667:4668   */\n      dup2\n        /* \"#utility.yul\":4664:4677   */\n      lt\n        /* \"#utility.yul\":4645:4927   */\n      iszero\n      tag_182\n      jumpi\n        /* \"#utility.yul\":4746:4752   */\n      dup2\n        /* \"#utility.yul\":4740:4753   */\n      mload\n        /* \"#utility.yul\":4773:4836   */\n      tag_183\n        /* \"#utility.yul\":4832:4835   */\n      dup8\n        /* \"#utility.yul\":4817:4830   */\n      dup3\n        /* \"#utility.yul\":4773:4836   */\n      tag_122\n      jump\t// in\n    tag_183:\n        /* \"#utility.yul\":4766:4836   */\n      swap7\n      pop\n        /* \"#utility.yul\":4859:4917   */\n      tag_184\n        /* \"#utility.yul\":4910:4916   */\n      dup4\n        /* \"#utility.yul\":4859:4917   */\n      tag_129\n      jump\t// in\n    tag_184:\n        /* \"#utility.yul\":4849:4917   */\n      swap3\n      pop\n        /* \"#utility.yul\":4705:4927   */\n      pop\n        /* \"#utility.yul\":4692:4693   */\n      0x01\n        /* \"#utility.yul\":4689:4690   */\n      dup2\n        /* \"#utility.yul\":4685:4694   */\n      add\n        /* \"#utility.yul\":4680:4694   */\n      swap1\n      pop\n        /* \"#utility.yul\":4645:4927   */\n      jump(tag_180)\n    tag_182:\n        /* \"#utility.yul\":4649:4663   */\n      pop\n        /* \"#utility.yul\":4352:4934   */\n      pop\n      pop\n      pop\n        /* \"#utility.yul\":4240:4934   */\n      pop\n      pop\n      jump\t// out\n        /* \"#utility.yul\":4940:5255   */\n    tag_42:\n        /* \"#utility.yul\":5079:5083   */\n      0x00\n        /* \"#utility.yul\":5117:5120   */\n      0x80\n        /* \"#utility.yul\":5106:5115   */\n      dup3\n        /* \"#utility.yul\":5102:5121   */\n      add\n        /* \"#utility.yul\":5094:5121   */\n      swap1\n      pop\n        /* \"#utility.yul\":5131:5248   */\n      tag_186\n        /* \"#utility.yul\":5245:5246   */\n      0x00\n        /* \"#utility.yul\":5234:5243   */\n      dup4\n        /* \"#utility.yul\":5230:5247   */\n      add\n        /* \"#utility.yul\":5221:5227   */\n      dup5\n        /* \"#utility.yul\":5131:5248   */\n      tag_130\n      jump\t// in\n    tag_186:\n        /* \"#utility.yul\":4940:5255   */\n      swap3\n      swap2\n      pop\n      pop\n      jump\t// out\n        /* \"#utility.yul\":5261:5441   */\n    tag_131:\n        /* \"#utility.yul\":5309:5386   */\n      0x4e487b7100000000000000000000000000000000000000000000000000000000\n        /* \"#utility.yul\":5306:5307   */\n      0x00\n        /* \"#utility.yul\":5299:5387   */\n      mstore\n        /* \"#utility.yul\":5406:5410   */\n      0x11\n        /* \"#utility.yul\":5403:5404   */\n      0x04\n        /* \"#utility.yul\":5396:5411   */\n      mstore\n        /* \"#utility.yul\":5430:5434   */\n      0x24\n        /* \"#utility.yul\":5427:5428   */\n      0x00\n        /* \"#utility.yul\":5420:5435   */\n      revert\n        /* \"#utility.yul\":5447:5680   */\n    tag_51:\n        /* \"#utility.yul\":5486:5489   */\n      0x00\n        /* \"#utility.yul\":5509:5533   */\n      tag_189\n        /* \"#utility.yul\":5527:5532   */\n      dup3\n        /* \"#utility.yul\":5509:5533   */\n      tag_115\n      jump\t// in\n    tag_189:\n        /* \"#utility.yul\":5500:5533   */\n      swap2\n      pop\n        /* \"#utility.yul\":5555:5621   */\n      0xffffffffffffffffffffffffffffffffffffffffffffffffffffffffffffffff\n        /* \"#utility.yul\":5548:5553   */\n      dup3\n        /* \"#utility.yul\":5545:5622   */\n      sub\n        /* \"#utility.yul\":5542:5645   */\n      tag_190\n      jumpi\n        /* \"#utility.yul\":5625:5643   */\n      tag_191\n      tag_131\n      jump\t// in\n    tag_191:\n        /* \"#utility.yul\":5542:5645   */\n    tag_190:\n        /* \"#utility.yul\":5672:5673   */\n      0x01\n        /* \"#utility.yul\":5665:5670   */\n      dup3\n        /* \"#utility.yul\":5661:5674   */\n      add\n        /* \"#utility.yul\":5654:5674   */\n      swap1\n      pop\n        /* \"#utility.yul\":5447:5680   */\n      swap2\n      swap1\n      pop\n      jump\t// out\n        /* \"#utility.yul\":5686:5866   */\n    tag_54:\n        /* \"#utility.yul\":5734:5811   */\n      0x4e487b7100000000000000000000000000000000000000000000000000000000\n        /* \"#utility.yul\":5731:5732   */\n      0x00\n        /* \"#utility.yul\":5724:5812   */\n      mstore\n        /* \"#utility.yul\":5831:5835   */\n      0x32\n        /* \"#utility.yul\":5828:5829   */\n      0x04\n        /* \"#utility.yul\":5821:5836   */\n      mstore\n        /* \"#utility.yul\":5855:5859   */\n      0x24\n        /* \"#utility.yul\":5852:5853   */\n      0x00\n        /* \"#utility.yul\":5845:5860   */\n      revert\n        /* \"#utility.yul\":5872:6063   */\n    tag_67:\n        /* \"#utility.yul\":5912:5915   */\n      0x00\n        /* \"#utility.yul\":5931:5951   */\n      tag_194\n        /* \"#utility.yul\":5949:5950   */\n      dup3\n        /* \"#utility.yul\":5931:5951   */\n      tag_115\n      jump\t// in\n    tag_194:\n        /* \"#utility.yul\":5926:5951   */\n      swap2\n      pop\n        /* \"#utility.yul\":5965:5985   */\n      tag_195\n        /* \"#utility.yul\":5983:5984   */\n      dup4\n        /* \"#utility.yul\":5965:5985   */\n      tag_115\n      jump\t// in\n    tag_195:\n        /* \"#utility.yul\":5960:5985   */\n      swap3\n      pop\n        /* \"#utility.yul\":6008:6009   */\n      dup3\n        /* \"#utility.yul\":6005:6006   */\n      dup3\n        /* \"#utility.yul\":6001:6010   */\n      add\n        /* \"#utility.yul\":5994:6010   */\n      swap1\n      pop\n        /* \"#utility.yul\":6029:6032   */\n      dup1\n        /* \"#utility.yul\":6026:6027   */\n      dup3\n        /* \"#utility.yul\":6023:6033   */\n      gt\n        /* \"#utility.yul\":6020:6056   */\n      iszero\n      tag_196\n      jumpi\n        /* \"#utility.yul\":6036:6054   */\n      tag_197\n      tag_131\n      jump\t// in\n    tag_197:\n        /* \"#utility.yul\":6020:6056   */\n    tag_196:\n        /* \"#utility.yul\":5872:6063   */\n      swap3\n      swap2\n      pop\n      pop\n      jump\t// out\n\n    auxdata: 0xa2646970667358221220235116b4b67c30f0983313170a197af42a42cb094abc3a44dc5917e8eb258f0964736f6c63430008120033\n}\n",
				"bytecode": {
					"linkReferences": {},
					"object": "608060405234801561001057600080fd5b506107ec806100206000396000f3fe608060405234801561001057600080fd5b506004361061009e5760003560e01c80634e744db2116100665780634e744db214610135578063d469d3f614610154578063d504ea1d14610172578063de438f5c14610190578063fc0e6008146101af5761009e565b806316cdf825146100a35780631a14ff7a146100bf578063317e84d5146100dd578063448381b2146100fb5780634c9262b414610117575b600080fd5b6100bd60048036038101906100b891906104dd565b6101cd565b005b6100c7610200565b6040516100d491906105c8565b60405180910390f35b6100e5610258565b6040516100f291906105f9565b60405180910390f35b610115600480360381019061011091906104dd565b6102a5565b005b61011f6102d1565b60405161012c91906105f9565b60405180910390f35b61013d61031e565b60405161014b929190610614565b60405180910390f35b61015c61035f565b60405161016991906105f9565b60405180910390f35b61017a6103b9565b60405161018791906106c1565b60405180910390f35b610198610404565b6040516101a6929190610614565b60405180910390f35b6101b7610444565b6040516101c491906105f9565b60405180910390f35b806000600460008154809291906101e39061070b565b91905055600481106101f8576101f7610753565b5b018190555050565b6060600580548060200260200160405190810160405280929190818152602001828054801561024e57602002820191906000526020600020905b81548152602001906001019080831161023a575b5050505050905090565b60008060005b600481101561029d576000816004811061027b5761027a610753565b5b0154826102889190610782565b915080806102959061070b565b91505061025e565b508091505090565b600581908060018154018082558091505060019003906000526020600020016000909190919091505550565b60008060005b600481101561031657600081600481106102f4576102f3610753565b5b0154826103019190610782565b9150808061030e9061070b565b9150506102d7565b508091505090565b600080600080600190505b600681101561035357808261033e9190610782565b9150808061034b9061070b565b915050610329565b81819350935050509091565b60008060005b6005805490508110156103b1576005818154811061038657610385610753565b5b90600052602060002001548261039c9190610782565b915080806103a99061070b565b915050610365565b508091505090565b6103c1610480565b60006004806020026040519081016040528092919082600480156103fa576020028201915b8154815260200190600101908083116103e6575b5050505050905090565b600080600080600190505b600581116104385780826104239190610782565b915080806104309061070b565b91505061040f565b81819350935050509091565b6000806000600190505b60068110156104785780826104639190610782565b915080806104709061070b565b91505061044e565b508091505090565b6040518060800160405280600490602082028036833780820191505090505090565b600080fd5b6000819050919050565b6104ba816104a7565b81146104c557600080fd5b50565b6000813590506104d7816104b1565b92915050565b6000602082840312156104f3576104f26104a2565b5b6000610501848285016104c8565b91505092915050565b600081519050919050565b600082825260208201905092915050565b6000819050602082019050919050565b61053f816104a7565b82525050565b60006105518383610536565b60208301905092915050565b6000602082019050919050565b60006105758261050a565b61057f8185610515565b935061058a83610526565b8060005b838110156105bb5781516105a28882610545565b97506105ad8361055d565b92505060018101905061058e565b5085935050505092915050565b600060208201905081810360008301526105e2818461056a565b905092915050565b6105f3816104a7565b82525050565b600060208201905061060e60008301846105ea565b92915050565b600060408201905061062960008301856105ea565b61063660208301846105ea565b9392505050565b600060049050919050565b600081905092915050565b6000819050919050565b6000602082019050919050565b6106738161063d565b61067d8184610648565b925061068882610653565b8060005b838110156106b95781516106a08782610545565b96506106ab8361065d565b92505060018101905061068c565b505050505050565b60006080820190506106d6600083018461066a565b92915050565b7f4e487b7100000000000000000000000000000000000000000000000000000000600052601160045260246000fd5b6000610716826104a7565b91507fffffffffffffffffffffffffffffffffffffffffffffffffffffffffffffffff8203610748576107476106dc565b5b600182019050919050565b7f4e487b7100000000000000000000000000000000000000000000000000000000600052603260045260246000fd5b600061078d826104a7565b9150610798836104a7565b92508282019050808211156107b0576107af6106dc565b5b9291505056fea2646970667358221220235116b4b67c30f0983313170a197af42a42cb094abc3a44dc5917e8eb258f0964736f6c63430008120033",
					"opcodes": "PUSH1 0x80 PUSH1 0x40 MSTORE CALLVALUE DUP1 ISZERO PUSH2 0x10 JUMPI PUSH1 0x0 DUP1 REVERT JUMPDEST POP PUSH2 0x7EC DUP1 PUSH2 0x20 PUSH1 0x0 CODECOPY PUSH1 0x0 RETURN INVALID PUSH1 0x80 PUSH1 0x40 MSTORE CALLVALUE DUP1 ISZERO PUSH2 0x10 JUMPI PUSH1 0x0 DUP1 REVERT JUMPDEST POP PUSH1 0x4 CALLDATASIZE LT PUSH2 0x9E JUMPI PUSH1 0x0 CALLDATALOAD PUSH1 0xE0 SHR DUP1 PUSH4 0x4E744DB2 GT PUSH2 0x66 JUMPI DUP1 PUSH4 0x4E744DB2 EQ PUSH2 0x135 JUMPI DUP1 PUSH4 0xD469D3F6 EQ PUSH2 0x154 JUMPI DUP1 PUSH4 0xD504EA1D EQ PUSH2 0x172 JUMPI DUP1 PUSH4 0xDE438F5C EQ PUSH2 0x190 JUMPI DUP1 PUSH4 0xFC0E6008 EQ PUSH2 0x1AF JUMPI PUSH2 0x9E JUMP JUMPDEST DUP1 PUSH4 0x16CDF825 EQ PUSH2 0xA3 JUMPI DUP1 PUSH4 0x1A14FF7A EQ PUSH2 0xBF JUMPI DUP1 PUSH4 0x317E84D5 EQ PUSH2 0xDD JUMPI DUP1 PUSH4 0x448381B2 EQ PUSH2 0xFB JUMPI DUP1 PUSH4 0x4C9262B4 EQ PUSH2 0x117 JUMPI JUMPDEST PUSH1 0x0 DUP1 REVERT JUMPDEST PUSH2 0xBD PUSH1 0x4 DUP1 CALLDATASIZE SUB DUP2 ADD SWAP1 PUSH2 0xB8 SWAP2 SWAP1 PUSH2 0x4DD JUMP JUMPDEST PUSH2 0x1CD JUMP JUMPDEST STOP JUMPDEST PUSH2 0xC7 PUSH2 0x200 JUMP JUMPDEST PUSH1 0x40 MLOAD PUSH2 0xD4 SWAP2 SWAP1 PUSH2 0x5C8 JUMP JUMPDEST PUSH1 0x40 MLOAD DUP1 SWAP2 SUB SWAP1 RETURN JUMPDEST PUSH2 0xE5 PUSH2 0x258 JUMP JUMPDEST PUSH1 0x40 MLOAD PUSH2 0xF2 SWAP2 SWAP1 PUSH2 0x5F9 JUMP JUMPDEST PUSH1 0x40 MLOAD DUP1 SWAP2 SUB SWAP1 RETURN JUMPDEST PUSH2 0x115 PUSH1 0x4 DUP1 CALLDATASIZE SUB DUP2 ADD SWAP1 PUSH2 0x110 SWAP2 SWAP1 PUSH2 0x4DD JUMP JUMPDEST PUSH2 0x2A5 JUMP JUMPDEST STOP JUMPDEST PUSH2 0x11F PUSH2 0x2D1 JUMP JUMPDEST PUSH1 0x40 MLOAD PUSH2 0x12C SWAP2 SWAP1 PUSH2 0x5F9 JUMP JUMPDEST PUSH1 0x40 MLOAD DUP1 SWAP2 SUB SWAP1 RETURN JUMPDEST PUSH2 0x13D PUSH2 0x31E JUMP JUMPDEST PUSH1 0x40 MLOAD PUSH2 0x14B SWAP3 SWAP2 SWAP1 PUSH2 0x614 JUMP JUMPDEST PUSH1 0x40 MLOAD DUP1 SWAP2 SUB SWAP1 RETURN JUMPDEST PUSH2 0x15C PUSH2 0x35F JUMP JUMPDEST PUSH1 0x40 MLOAD PUSH2 0x169 SWAP2 SWAP1 PUSH2 0x5F9 JUMP JUMPDEST PUSH1 0x40 MLOAD DUP1 SWAP2 SUB SWAP1 RETURN JUMPDEST PUSH2 0x17A PUSH2 0x3B9 JUMP JUMPDEST PUSH1 0x40 MLOAD PUSH2 0x187 SWAP2 SWAP1 PUSH2 0x6C1 JUMP JUMPDEST PUSH1 0x40 MLOAD DUP1 SWAP2 SUB SWAP1 RETURN JUMPDEST PUSH2 0x198 PUSH2 0x404 JUMP JUMPDEST PUSH1 0x40 MLOAD PUSH2 0x1A6 SWAP3 SWAP2 SWAP1 PUSH2 0x614 JUMP JUMPDEST PUSH1 0x40 MLOAD DUP1 SWAP2 SUB SWAP1 RETURN JUMPDEST PUSH2 0x1B7 PUSH2 0x444 JUMP JUMPDEST PUSH1 0x40 MLOAD PUSH2 0x1C4 SWAP2 SWAP1 PUSH2 0x5F9 JUMP JUMPDEST PUSH1 0x40 MLOAD DUP1 SWAP2 SUB SWAP1 RETURN JUMPDEST DUP1 PUSH1 0x0 PUSH1 0x4 PUSH1 0x0 DUP2 SLOAD DUP1 SWAP3 SWAP2 SWAP1 PUSH2 0x1E3 SWAP1 PUSH2 0x70B JUMP JUMPDEST SWAP2 SWAP1 POP SSTORE PUSH1 0x4 DUP2 LT PUSH2 0x1F8 JUMPI PUSH2 0x1F7 PUSH2 0x753 JUMP JUMPDEST JUMPDEST ADD DUP2 SWAP1 SSTORE POP POP JUMP JUMPDEST PUSH1 0x60 PUSH1 0x5 DUP1 SLOAD DUP1 PUSH1 0x20 MUL PUSH1 0x20 ADD PUSH1 0x40 MLOAD SWAP1 DUP2 ADD PUSH1 0x40 MSTORE DUP1 SWAP3 SWAP2 SWAP1 DUP2 DUP2 MSTORE PUSH1 0x20 ADD DUP3 DUP1 SLOAD DUP1 ISZERO PUSH2 0x24E JUMPI PUSH1 0x20 MUL DUP3 ADD SWAP2 SWAP1 PUSH1 0x0 MSTORE PUSH1 0x20 PUSH1 0x0 KECCAK256 SWAP1 JUMPDEST DUP2 SLOAD DUP2 MSTORE PUSH1 0x20 ADD SWAP1 PUSH1 0x1 ADD SWAP1 DUP1 DUP4 GT PUSH2 0x23A JUMPI JUMPDEST POP POP POP POP POP SWAP1 POP SWAP1 JUMP JUMPDEST PUSH1 0x0 DUP1 PUSH1 0x0 JUMPDEST PUSH1 0x4 DUP2 LT ISZERO PUSH2 0x29D JUMPI PUSH1 0x0 DUP2 PUSH1 0x4 DUP2 LT PUSH2 0x27B JUMPI PUSH2 0x27A PUSH2 0x753 JUMP JUMPDEST JUMPDEST ADD SLOAD DUP3 PUSH2 0x288 SWAP2 SWAP1 PUSH2 0x782 JUMP JUMPDEST SWAP2 POP DUP1 DUP1 PUSH2 0x295 SWAP1 PUSH2 0x70B JUMP JUMPDEST SWAP2 POP POP PUSH2 0x25E JUMP JUMPDEST POP DUP1 SWAP2 POP POP SWAP1 JUMP JUMPDEST PUSH1 0x5 DUP2 SWAP1 DUP1 PUSH1 0x1 DUP2 SLOAD ADD DUP1 DUP3 SSTORE DUP1 SWAP2 POP POP PUSH1 0x1 SWAP1 SUB SWAP1 PUSH1 0x0 MSTORE PUSH1 0x20 PUSH1 0x0 KECCAK256 ADD PUSH1 0x0 SWAP1 SWAP2 SWAP1 SWAP2 SWAP1 SWAP2 POP SSTORE POP JUMP JUMPDEST PUSH1 0x0 DUP1 PUSH1 0x0 JUMPDEST PUSH1 0x4 DUP2 LT ISZERO PUSH2 0x316 JUMPI PUSH1 0x0 DUP2 PUSH1 0x4 DUP2 LT PUSH2 0x2F4 JUMPI PUSH2 0x2F3 PUSH2 0x753 JUMP JUMPDEST JUMPDEST ADD SLOAD DUP3 PUSH2 0x301 SWAP2 SWAP1 PUSH2 0x782 JUMP JUMPDEST SWAP2 POP DUP1 DUP1 PUSH2 0x30E SWAP1 PUSH2 0x70B JUMP JUMPDEST SWAP2 POP POP PUSH2 0x2D7 JUMP JUMPDEST POP DUP1 SWAP2 POP POP SWAP1 JUMP JUMPDEST PUSH1 0x0 DUP1 PUSH1 0x0 DUP1 PUSH1 0x1 SWAP1 POP JUMPDEST PUSH1 0x6 DUP2 LT ISZERO PUSH2 0x353 JUMPI DUP1 DUP3 PUSH2 0x33E SWAP2 SWAP1 PUSH2 0x782 JUMP JUMPDEST SWAP2 POP DUP1 DUP1 PUSH2 0x34B SWAP1 PUSH2 0x70B JUMP JUMPDEST SWAP2 POP POP PUSH2 0x329 JUMP JUMPDEST DUP2 DUP2 SWAP4 POP SWAP4 POP POP POP SWAP1 SWAP2 JUMP JUMPDEST PUSH1 0x0 DUP1 PUSH1 0x0 JUMPDEST PUSH1 0x5 DUP1 SLOAD SWAP1 POP DUP2 LT ISZERO PUSH2 0x3B1 JUMPI PUSH1 0x5 DUP2 DUP2 SLOAD DUP2 LT PUSH2 0x386 JUMPI PUSH2 0x385 PUSH2 0x753 JUMP JUMPDEST JUMPDEST SWAP1 PUSH1 0x0 MSTORE PUSH1 0x20 PUSH1 0x0 KECCAK256 ADD SLOAD DUP3 PUSH2 0x39C SWAP2 SWAP1 PUSH2 0x782 JUMP JUMPDEST SWAP2 POP DUP1 DUP1 PUSH2 0x3A9 SWAP1 PUSH2 0x70B JUMP JUMPDEST SWAP2 POP POP PUSH2 0x365 JUMP JUMPDEST POP DUP1 SWAP2 POP POP SWAP1 JUMP JUMPDEST PUSH2 0x3C1 PUSH2 0x480 JUMP JUMPDEST PUSH1 0x0 PUSH1 0x4 DUP1 PUSH1 0x20 MUL PUSH1 0x40 MLOAD SWAP1 DUP2 ADD PUSH1 0x40 MSTORE DUP1 SWAP3 SWAP2 SWAP1 DUP3 PUSH1 0x4 DUP1 ISZERO PUSH2 0x3FA JUMPI PUSH1 0x20 MUL DUP3 ADD SWAP2 JUMPDEST DUP2 SLOAD DUP2 MSTORE PUSH1 0x20 ADD SWAP1 PUSH1 0x1 ADD SWAP1 DUP1 DUP4 GT PUSH2 0x3E6 JUMPI JUMPDEST POP POP POP POP POP SWAP1 POP SWAP1 JUMP JUMPDEST PUSH1 0x0 DUP1 PUSH1 0x0 DUP1 PUSH1 0x1 SWAP1 POP JUMPDEST PUSH1 0x5 DUP2 GT PUSH2 0x438 JUMPI DUP1 DUP3 PUSH2 0x423 SWAP2 SWAP1 PUSH2 0x782 JUMP JUMPDEST SWAP2 POP DUP1 DUP1 PUSH2 0x430 SWAP1 PUSH2 0x70B JUMP JUMPDEST SWAP2 POP POP PUSH2 0x40F JUMP JUMPDEST DUP2 DUP2 SWAP4 POP SWAP4 POP POP POP SWAP1 SWAP2 JUMP JUMPDEST PUSH1 0x0 DUP1 PUSH1 0x0 PUSH1 0x1 SWAP1 POP JUMPDEST PUSH1 0x6 DUP2 LT ISZERO PUSH2 0x478 JUMPI DUP1 DUP3 PUSH2 0x463 SWAP2 SWAP1 PUSH2 0x782 JUMP JUMPDEST SWAP2 POP DUP1 DUP1 PUSH2 0x470 SWAP1 PUSH2 0x70B JUMP JUMPDEST SWAP2 POP POP PUSH2 0x44E JUMP JUMPDEST POP DUP1 SWAP2 POP POP SWAP1 JUMP JUMPDEST PUSH1 0x40 MLOAD DUP1 PUSH1 0x80 ADD PUSH1 0x40 MSTORE DUP1 PUSH1 0x4 SWAP1 PUSH1 0x20 DUP3 MUL DUP1 CALLDATASIZE DUP4 CALLDATACOPY DUP1 DUP3 ADD SWAP2 POP POP SWAP1 POP POP SWAP1 JUMP JUMPDEST PUSH1 0x0 DUP1 REVERT JUMPDEST PUSH1 0x0 DUP2 SWAP1 POP SWAP2 SWAP1 POP JUMP JUMPDEST PUSH2 0x4BA DUP2 PUSH2 0x4A7 JUMP JUMPDEST DUP2 EQ PUSH2 0x4C5 JUMPI PUSH1 0x0 DUP1 REVERT JUMPDEST POP JUMP JUMPDEST PUSH1 0x0 DUP2 CALLDATALOAD SWAP1 POP PUSH2 0x4D7 DUP2 PUSH2 0x4B1 JUMP JUMPDEST SWAP3 SWAP2 POP POP JUMP JUMPDEST PUSH1 0x0 PUSH1 0x20 DUP3 DUP5 SUB SLT ISZERO PUSH2 0x4F3 JUMPI PUSH2 0x4F2 PUSH2 0x4A2 JUMP JUMPDEST JUMPDEST PUSH1 0x0 PUSH2 0x501 DUP5 DUP3 DUP6 ADD PUSH2 0x4C8 JUMP JUMPDEST SWAP2 POP POP SWAP3 SWAP2 POP POP JUMP JUMPDEST PUSH1 0x0 DUP2 MLOAD SWAP1 POP SWAP2 SWAP1 POP JUMP JUMPDEST PUSH1 0x0 DUP3 DUP3 MSTORE PUSH1 0x20 DUP3 ADD SWAP1 POP SWAP3 SWAP2 POP POP JUMP JUMPDEST PUSH1 0x0 DUP2 SWAP1 POP PUSH1 0x20 DUP3 ADD SWAP1 POP SWAP2 SWAP1 POP JUMP JUMPDEST PUSH2 0x53F DUP2 PUSH2 0x4A7 JUMP JUMPDEST DUP3 MSTORE POP POP JUMP JUMPDEST PUSH1 0x0 PUSH2 0x551 DUP4 DUP4 PUSH2 0x536 JUMP JUMPDEST PUSH1 0x20 DUP4 ADD SWAP1 POP SWAP3 SWAP2 POP POP JUMP JUMPDEST PUSH1 0x0 PUSH1 0x20 DUP3 ADD SWAP1 POP SWAP2 SWAP1 POP JUMP JUMPDEST PUSH1 0x0 PUSH2 0x575 DUP3 PUSH2 0x50A JUMP JUMPDEST PUSH2 0x57F DUP2 DUP6 PUSH2 0x515 JUMP JUMPDEST SWAP4 POP PUSH2 0x58A DUP4 PUSH2 0x526 JUMP JUMPDEST DUP1 PUSH1 0x0 JUMPDEST DUP4 DUP2 LT ISZERO PUSH2 0x5BB JUMPI DUP2 MLOAD PUSH2 0x5A2 DUP9 DUP3 PUSH2 0x545 JUMP JUMPDEST SWAP8 POP PUSH2 0x5AD DUP4 PUSH2 0x55D JUMP JUMPDEST SWAP3 POP POP PUSH1 0x1 DUP2 ADD SWAP1 POP PUSH2 0x58E JUMP JUMPDEST POP DUP6 SWAP4 POP POP POP POP SWAP3 SWAP2 POP POP JUMP JUMPDEST PUSH1 0x0 PUSH1 0x20 DUP3 ADD SWAP1 POP DUP2 DUP2 SUB PUSH1 0x0 DUP4 ADD MSTORE PUSH2 0x5E2 DUP2 DUP5 PUSH2 0x56A JUMP JUMPDEST SWAP1 POP SWAP3 SWAP2 POP POP JUMP JUMPDEST PUSH2 0x5F3 DUP2 PUSH2 0x4A7 JUMP JUMPDEST DUP3 MSTORE POP POP JUMP JUMPDEST PUSH1 0x0 PUSH1 0x20 DUP3 ADD SWAP1 POP PUSH2 0x60E PUSH1 0x0 DUP4 ADD DUP5 PUSH2 0x5EA JUMP JUMPDEST SWAP3 SWAP2 POP POP JUMP JUMPDEST PUSH1 0x0 PUSH1 0x40 DUP3 ADD SWAP1 POP PUSH2 0x629 PUSH1 0x0 DUP4 ADD DUP6 PUSH2 0x5EA JUMP JUMPDEST PUSH2 0x636 PUSH1 0x20 DUP4 ADD DUP5 PUSH2 0x5EA JUMP JUMPDEST SWAP4 SWAP3 POP POP POP JUMP JUMPDEST PUSH1 0x0 PUSH1 0x4 SWAP1 POP SWAP2 SWAP1 POP JUMP JUMPDEST PUSH1 0x0 DUP2 SWAP1 POP SWAP3 SWAP2 POP POP JUMP JUMPDEST PUSH1 0x0 DUP2 SWAP1 POP SWAP2 SWAP1 POP JUMP JUMPDEST PUSH1 0x0 PUSH1 0x20 DUP3 ADD SWAP1 POP SWAP2 SWAP1 POP JUMP JUMPDEST PUSH2 0x673 DUP2 PUSH2 0x63D JUMP JUMPDEST PUSH2 0x67D DUP2 DUP5 PUSH2 0x648 JUMP JUMPDEST SWAP3 POP PUSH2 0x688 DUP3 PUSH2 0x653 JUMP JUMPDEST DUP1 PUSH1 0x0 JUMPDEST DUP4 DUP2 LT ISZERO PUSH2 0x6B9 JUMPI DUP2 MLOAD PUSH2 0x6A0 DUP8 DUP3 PUSH2 0x545 JUMP JUMPDEST SWAP7 POP PUSH2 0x6AB DUP4 PUSH2 0x65D JUMP JUMPDEST SWAP3 POP POP PUSH1 0x1 DUP2 ADD SWAP1 POP PUSH2 0x68C JUMP JUMPDEST POP POP POP POP POP POP JUMP JUMPDEST PUSH1 0x0 PUSH1 0x80 DUP3 ADD SWAP1 POP PUSH2 0x6D6 PUSH1 0x0 DUP4 ADD DUP5 PUSH2 0x66A JUMP JUMPDEST SWAP3 SWAP2 POP POP JUMP JUMPDEST PUSH32 0x4E487B7100000000000000000000000000000000000000000000000000000000 PUSH1 0x0 MSTORE PUSH1 0x11 PUSH1 0x4 MSTORE PUSH1 0x24 PUSH1 0x0 REVERT JUMPDEST PUSH1 0x0 PUSH2 0x716 DUP3 PUSH2 0x4A7 JUMP JUMPDEST SWAP2 POP PUSH32 0xFFFFFFFFFFFFFFFFFFFFFFFFFFFFFFFFFFFFFFFFFFFFFFFFFFFFFFFFFFFFFFFF DUP3 SUB PUSH2 0x748 JUMPI PUSH2 0x747 PUSH2 0x6DC JUMP JUMPDEST JUMPDEST PUSH1 0x1 DUP3 ADD SWAP1 POP SWAP2 SWAP1 POP JUMP JUMPDEST PUSH32 0x4E487B7100000000000000000000000000000000000000000000000000000000 PUSH1 0x0 MSTORE PUSH1 0x32 PUSH1 0x4 MSTORE PUSH1 0x24 PUSH1 0x0 REVERT JUMPDEST PUSH1 0x0 PUSH2 0x78D DUP3 PUSH2 0x4A7 JUMP JUMPDEST SWAP2 POP PUSH2 0x798 DUP4 PUSH2 0x4A7 JUMP JUMPDEST SWAP3 POP DUP3 DUP3 ADD SWAP1 POP DUP1 DUP3 GT ISZERO PUSH2 0x7B0 JUMPI PUSH2 0x7AF PUSH2 0x6DC JUMP JUMPDEST JUMPDEST SWAP3 SWAP2 POP POP JUMP INVALID LOG2 PUSH5 0x6970667358 0x22 SLT KECCAK256 0x23 MLOAD AND 0xB4 0xB6 PUSH29 0x30F0983313170A197AF42A42CB094ABC3A44DC5917E8EB258F0964736F PUSH13 0x63430008120033000000000000 "
				},
				"gasEstimates": {
					"creation": {
						"codeDepositCost": "405600",
						"executionCost": "443",
						"totalCost": "406043"
					},
					"external": {
						"forLoop()": "infinite",
						"forLoop2()": "infinite",
						"forLoop3()": "infinite",
						"forLoop4()": "infinite",
						"forLoop5()": "infinite",
						"forLoop6()": "infinite",
						"getArray()": "infinite",
						"getD()": "infinite",
						"pushArray(uint256)": "infinite",
						"pushd(uint256)": "46896"
					}
				},
				"methodIdentifiers": {
					"forLoop()": "fc0e6008",
					"forLoop2()": "4e744db2",
					"forLoop3()": "de438f5c",
					"forLoop4()": "317e84d5",
					"forLoop5()": "4c9262b4",
					"forLoop6()": "d469d3f6",
					"getArray()": "d504ea1d",
					"getD()": "1a14ff7a",
					"pushArray(uint256)": "16cdf825",
					"pushd(uint256)": "448381b2"
				}
			},
			"storageLayout": {
				"storage": [
					{
						"astId": 106,
						"contract": "contracts/1_For.sol:For",
						"label": "array",
						"offset": 0,
						"slot": "0",
						"type": "t_array(t_uint256)4_storage"
					},
					{
						"astId": 108,
						"contract": "contracts/1_For.sol:For",
						"label": "count",
						"offset": 0,
						"slot": "4",
						"type": "t_uint256"
					},
					{
						"astId": 197,
						"contract": "contracts/1_For.sol:For",
						"label": "d",
						"offset": 0,
						"slot": "5",
						"type": "t_array(t_uint256)dyn_storage"
					}
				],
				"types": {
					"t_array(t_uint256)4_storage": {
						"base": "t_uint256",
						"encoding": "inplace",
						"label": "uint256[4]",
						"numberOfBytes": "128"
					},
					"t_array(t_uint256)dyn_storage": {
						"base": "t_uint256",
						"encoding": "dynamic_array",
						"label": "uint256[]",
						"numberOfBytes": "32"
					},
					"t_uint256": {
						"encoding": "inplace",
						"label": "uint256",
						"numberOfBytes": "32"
					}
				}
			},
			"userdoc": {
				"kind": "user",
				"methods": {},
				"version": 1
			}
		}
	}
}